:020000040000fa
:080000000001040000000000f3
:020000040000fa
:040008005803000099
:020000040000fa
:04000c005803000095
:020000040000fa
:040010005803000091
:020000040000fa
:04001400580300008d
:020000040000fa
:040018005803000089
:020000040000fa
:04001c005803000085
:020000040000fa
:040020005803000081
:020000040000fa
:04002400580300007d
:020000040000fa
:040028009002000042
:020000040000fa
:04002c005803000075
:020000040000fa
:040030005803000071
:020000040000fa
:04003400580300006d
:020000040000fa
:040038005803000069
:020000040000fa
:04003c005803000065
:020000040000fa
:04004000aa02000010
:020000040000fa
:0400440002030000b3
:020000040000fa
:040048005803000059
:020000040000fa
:04004c005803000055
:020000040000fa
:040050005803000051
:020000040000fa
:04005400580300004d
:020000040000fa
:040058005803000049
:020000040000fa
:04005c005803000045
:020000040000fa
:040060005803000041
:020000040000fa
:04006400580300003d
:020000040000fa
:04006800e8020000aa
:020000040000fa
:04006c005803000035
:020000040000fa
:040070005803000031
:020000040000fa
:04007400580300002d
:020000040000fa
:040078005803000029
:020000040000fa
:04007c002c03000051
:020000040000fa
:040080005803000021
:020000040000fa
:04008400580300001d
:020000040000fa
:04008800e80100008b
:020000040000fa
:04008c00420200002c
:020000040000fa
:040090005803000011
:020000040000fa
:04009400580300000d
:020000040000fa
:040098005803000009
:020000040000fa
:04009c005803000005
:020000040000fa
:0400a0005803000001
:020000040000fa
:0400a40058030000fd
:020000040000fa
:0400a80058030000f9
:020000040000fa
:0400ac0058030000f5
:020000040000fa
:0400b00058030000f1
:020000040000fa
:0400b40058030000ed
:020000040000fa
:0400b80058030000e9
:020000040000fa
:0400bc0058030000e5
:020000040000fa
:0400c00058030000e1
:020000040000fa
:0400c40058030000dd
:020000040000fa
:0400c80058030000d9
:020000040000fa
:0400cc0058030000d5
:020000040000fa
:0400d00058030000d1
:020000040000fa
:0400d40058030000cd
:020000040000fa
:0400d80058030000c9
:020000040000fa
:040108005803000098
:020000040000fa
:04010c005803000094
:020000040000fa
:040110005803000090
:020000040000fa
:04011400580300008c
:020000040000fa
:040118005803000088
:020000040000fa
:04011c005803000084
:020000040000fa
:040120005803000080
:020000040000fa
:04012400580300007c
:020000040000fa
:040128009002000041
:020000040000fa
:04012c005803000074
:020000040000fa
:040130005803000070
:020000040000fa
:04013400580300006c
:020000040000fa
:040138005803000068
:020000040000fa
:04013c005803000064
:020000040000fa
:04014000aa0200000f
:020000040000fa
:0401440002030000b2
:020000040000fa
:040148005803000058
:020000040000fa
:04014c005803000054
:020000040000fa
:040150005803000050
:020000040000fa
:04015400580300004c
:020000040000fa
:040158005803000048
:020000040000fa
:04015c005803000044
:020000040000fa
:040160005803000040
:020000040000fa
:04016400580300003c
:020000040000fa
:04016800e8020000a9
:020000040000fa
:04016c005803000034
:020000040000fa
:040170005803000030
:020000040000fa
:04017400580300002c
:020000040000fa
:040178005803000028
:020000040000fa
:04017c002c03000050
:020000040000fa
:040180005803000020
:020000040000fa
:04018400580300001c
:020000040000fa
:04018800e80100008a
:020000040000fa
:04018c00420200002b
:020000040000fa
:040190005803000010
:020000040000fa
:04019400580300000c
:020000040000fa
:040198005803000008
:020000040000fa
:04019c005803000004
:020000040000fa
:0401a0005803000000
:020000040000fa
:0401a40058030000fc
:020000040000fa
:0401a80058030000f8
:020000040000fa
:0401ac0058030000f4
:020000040000fa
:0401b00058030000f0
:020000040000fa
:0401b40058030000ec
:020000040000fa
:0401b80058030000e8
:020000040000fa
:0401bc0058030000e4
:020000040000fa
:0401c00058030000e0
:020000040000fa
:0401c40058030000dc
:020000040000fa
:0401c80058030000d8
:020000040000fa
:0401cc0058030000d4
:020000040000fa
:0401d00058030000d0
:020000040000fa
:0401d40058030000cc
:020000040000fa
:0401d80058030000c8
:020000040000fa
:100200000f9020000eff20000e018800000000006b
:10021000000020000000e000020032000001200089
:100220002002880014000700230107000000e000fe
:1002300003003a00608b2300010020000200370019
:100240000000200001002000810f7000010032003a
:1002500014000700000020000000e000020032004f
:100260000000020000000000b42e020000000000a8
:100270000040da000000fe004440a9008006200093
:100280000000e0000300320000002000a001880010
:100290004440a800000006008a1f78008b1f7800e9
:1002a0000000060091018800800478000000eb0047
:1002b0001a003700e284440032a0b4009905ba0065
:1002c000e284440032a0b4009906ba00e2844400fb
:1002d00032a0b4000006eb00476fde00fd07b2005d
:1002e000636ce10003003a00ebff07000000eb0045
:1002f0000a003700606ce10004003a00005deb008a
:100300008b05e900fdff3e00040037006168e10055
:10031000010032000086eb000b00070019c7ba008d
:100320001905ba000e04e00003003a000a00e000dc
:10033000e0ff3a0000000600fe07b2009e018800c0
:100340008a047800f5ff3700395dba008b05e900b3
:100350000c003200295dba008b05e900080032006c
:100360000c00e00003003a00e284440032a0b40034
:10037000f5ff370019ddba008b05e900faff3a00f6
:100380008904e800e184440032a0b40000000600c3
:10039000000000000000000000000000000000005d
:1003a000000000000000000000000000000000004d
:1003b000000000000000000000000000000000003d
:1003c000000000000000000000000000000000002d
:1003d0003600f800809fbe00821f78003400f800cd
:1003e00000002000a00188000000fa008700a9009a
:1003f00018003700004080008000e8000005200061
:1004000000017800110009008200d8008000fd0082
:1004100011408000810f5000130032002140800005
:100420000040800000804000e110800081407800a2
:1004300001487800004080008000e80000052000ae
:1004400000017800110009008200d8008000fd0042
:1004500000408800c0108000610060000000e000e3
:10046000e4ff3a0001003700000000000080fa00bd
:100470003400f9004f0178004f00be003600f9004b
:1004800000400600809fbe003400f80000002000fd
:10049000a00188000000fa008720a900150037009d
:1004a0004140800030408000808f500017003200b3
:1004b00051408000404080000080400010407800a3
:1004c0000000fb00d0108800404080008000e80061
:1004d000f0032800008060000000e00004003d0000
:1004e0000000e90001fc2f00008070000000e8001f
:1004f00040408800c1108000002020000080600083
:100500000000e000e6ff32000100370000000000bc
:100510000080fa003400f9004f00be0000400600e1
:100520003400f800881f780008002000a801880027
:100530004f0478000000fa008400a90084c0a900dc
:100540000621ef008cc0a8000080fa003400f900fa
:10055000004006003600f800809fbe00829fbe006b
:10056000849fbe00869fbe003400f800000020007b
:10057000a00188000000fa0084c0a900d116800004
:1005800000102000008060000000e0000700320042
:1005900041140700ca22a9002000200070468800ec
:1005a00086a0a9001421ef008ea0a9008cc0a9008c
:1005b0000080fa003400f9004f03be004f02be0075
:1005c0004f01be004f00be003600f900004006009b
:1005d0003400f800881f780008002000a801880077
:1005e0004f0478000000fa008600a90084e0a9000a
:1005f0000a21ef008ce0a8000080fa003400f90026
:1006000000400600801f78003400f8000000200041
:10061000a00188000000fa0084e0a900a016800074
:10062000610060000000e00006003200a040800091
:1006300000f0a7000000ea000000e9004f00de0023
:10064000a04088008ce0a9000080fa003400f90086
:100650004f007800004006003600f800809fbe0082
:10066000829fbe00849fbe00869fbe003400f800bb
:1006700000002000a00188000000fa0086a0a90068
:100680000514070010002000704688008ea0a90005
:100690000080fa003400f9004f03be004f02be0094
:1006a0004f01be004f00be003600f90000400600ba
:1006b0000040da000000fe000000050014002000e9
:1006c00092033700f4ff2f00900337000001be00b3
:1006d000240007000470a70003f0a1006509b10021
:1006e000160032000d0035006828e10006003500d4
:1006f000f0ff2f00f1ff27000300e00013003b0094
:100700000100280000000500000040008180480032
:100710008502e900fcff3a0008003700f88f42002c
:1007200002003c008000eb00000005008100d100c9
:100730000080d3008502e800fcff3a000300e000df
:1007400002003b0060001000e0801800000006007e
:100750004f89de0082017800870337006011b800fe
:1007600095033700c70ade00f107b200f50fb200ab
:1007700008003200e1cf4200020032000170a00008
:1007800024000500810f70000100320004080500fc
:1007900044000500810f700002003a0014000500bb
:1007a0008502e9000000400081c04800fcff3b00da
:1007b0000170a0002400050007f8270007836100ee
:1007c0000638e10004003a00f70720008783610043
:1007d0008703710001003a0003f0a200889fbe0069
:1007e0008a9fbe008c9fbe00470ade000480a100e5
:1007f000c71ade000580a1000700280007856000f9
:1008000087856100f70f20000720e1009e0032007d
:100810000728e1009c003200010678000400e00097
:10082000b4003200f7072000878060000170a0004c
:100830000500e000c0003200f7072000878161005a
:100840000370a000050652000f003a000b50e100b3
:100850000b0032000308e10002003a000200e10050
:100860007e003200020450008384580004003100ee
:100870000001fd008101fd008402fd008a05fd00ec
:100880006044b800210037000520e10005003d006c
:100890000001fd008101fd008402fd008a05fd00cc
:1008a000050652007a60e100050035000170a100e4
:1008b0004722dd00848070008a807000630037006a
:1008c0006044b800ef02660007ff2f0007066600cd
:1008d0000500e00006003400f08312008714dd00fc
:1008e0000511de00071bdd00060171008519de0021
:1008f0007060e1000500350009047800820478008a
:10090000030178008001eb00700656000b50e100f7
:1009100003003a00020040008380480004003700d2
:1009200060041400e0841c0002005800838058001a
:100930000188a300060032008100d1000080d300ae
:100940008984d3000884d3000402e800270037001c
:100950000178a30025003a000100e0000300320006
:100960008186cf00698656000a0037008c0020007f
:100970000000e00004003a000900780088047800d4
:100980000004eb00700252008086cf000d06460086
:100990000c06e9007060e100060035008000780078
:1009a00009007800880478000004eb007006560007
:1009b000700252000c00e0000c0034008c08dd00d6
:1009c000f00316000703de00868070000c00dd00d7
:1009d000074bde00060070008c4cdd000743de0094
:1009e000868474000c44dd000c0252006120e1009a
:1009f0002000350061016000070028008781640045
:100a0000f7ff270087836400070374000300e000fa
:100a10000600320082037300040032000000e80088
:100a2000e08048000188a3000e003a00f70f200084
:100a30000720e1004a003d000170a1004722dd00cf
:100a4000810072008a8070000000be004f06be0068
:100a50004f05be004f04be00000006006000b80055
:100a6000faff37008100d1000080d3000402e800c3
:100a7000eeff37000401780089017400a10107002e
:100a80008a807000f1ff3700f70107000702780045
:100a90000001fd008101fd00f301070087027800dd
:100aa000850372000778a300040032000001fd00f6
:100ab0008101fd0006020700e4ff370085036200a4
:100ac0000768a300080032000b50e1000300320069
:100ad000f0ff2f00f1ff2700dcff37000001fd00d1
:100ae0008101fd00d9ff37000468a300d7ff320061
:100af000faff3700f8ff2700888360000b003a00f8
:100b00000000e00009003a00830364008283730060
:100b1000020032000200be00ccff37000b50e100a3
:100b2000ceff3a000200be00c8ff370014002000cc
:100b3000810064003eff3700f8ff270088836100d2
:100b400004003a000200e00002003a008c00780045
:100b5000beff3700150020008301640039ff370015
:100b600001f827000000200081007500b7ff370062
:100b7000889fbe008a9fbe008c9fbe001b00200085
:100b80000202be0005866800060028000606660010
:100b90004709de00f20fb200820032000243e80093
:100ba00080003200c729de00f30fb2007d00320062
:100bb0000343e8007b003200f107b2000170a0009f
:100bc000f507b2000570a000c708dd004903de008c
:100bd000868070004700dd00c72add004923de0063
:100be000868272004722dd00030551000403500095
:100bf00085835800030031000000400081804800d8
:100c00000a05e9008c1f78008a9fbe00040050008e
:100c1000858058000402420085824a00000040009e
:100c2000818048000005eb000004be006033b8007e
:100c30000406be000d48e100560031001100090015
:100c40004dccd8000c01b8000d02b80084814100e1
:100c500060824a008283530003045c0084845c0049
:100c600060055d000a00e00025003a00800578007c
:100c70000d40e1004900310088007800070078004d
:100c8000110009004d88d8000c01b8000d02b80011
:100c90008481410060824a006003110083835b000d
:100ca00004045c00e0845c000900e00021003a00dc
:100cb0004f01be000300e0002b003200e3016000a2
:100cc000070673008c81710001003200640070001f
:100cd0004200de004e5edd000c007000c258de00f7
:100ce00001e0a00083010700cf017800818071003e
:100cf0004f06be004f05be004f04be0000000600b8
:100d00008c8343000d044c00e0844c0060054d00d2
:100d10000000e9000a00e000d4ff32008c834300a9
:100d20000d044c00e0844c0060054d000000e9001b
:100d3000ceff37000c0343008d834b0060044c0052
:100d4000e0844c000000e9000900e000d8ff320018
:100d50000c0343008d834b0060044c00e0844c0086
:100d60000000e900d2ff37004200de004e5edd00e9
:100d70000c007000c258de0001e0a000cf01780036
:100d80000300e000daff320060001000e08018008d
:100d9000d7ff3700f0ff2f00aaff3700f0ff2f002a
:100da000b9ff37000404be002f0107008706780052
:100db0000004fd008104fd002b010700078366008d
:100dc0000678a300030032000960a7000800be00f7
:100dd0002c0037000d78a300020032000800be008e
:100de000280037000778a30026003a0001f0a10090
:100df00009f0a1000668a30003003200f1ff2700fc
:100e0000f0ff2f00baff37000d68a3000300320087
:100e10000800be008c807000b5ff37000768a30093
:100e200007003a000648a30003003200f1ff270044
:100e3000f0ff2f00aeff37000d48a3000300320083
:100e40006000b8008c807000a9ff37000748a3003d
:100e50000400320001f82700000020008c807000a0
:100e6000a3ff3700760107000004fd008104fd00a8
:100e700002057800720107000802be008a017800ae
:100e800059ff37000160a00012022000824688004e
:100e900097ff37000100e000120032000500e0007b
:100ea00010003200889fbe008a9fbe008c9fbe004b
:100eb0000006eb0001f8a300030032006000100000
:100ec000e08018000cf0a00005f8a3000300320039
:100ed00060021200e0821a000cf0a2008005eb0014
:100ee00041ff37006000b80002000500038368007e
:100ef0000700280007036300470ade000480a10002
:100f0000c71ade000580a100f70f20000720e100ce
:100f1000420032000728e10040003200889fbe00f6
:100f20008a9fbe008c1f7800f107b200f307b20061
:100f30000400e000640032000170a0000500e00041
:100f4000680032000370a00085054200eb07b10085
:100f50000204b8000302b8008484440060854a009b
:100f6000020ab800848444000a854a00030ab800d3
:100f700004054500040033000804d0008984d20031
:100f80000a85d2008b05e9006158e1003d0035007b
:100f9000021020000901610003082000898161001e
:100fa000f70720008783640008867300c84cde00c2
:100fb000c853dd00878474004855de000300e0005c
:100fc0000600320082037600040032008904e80043
:100fd00060054d000a88a3000c003a00f70f2000be
:100fe0000758e10044003d000a70a100c75ddd0024
:100ff0000a8575008a007300090078004f067800a2
:101000004f05be004f04be00000006000a05d100d7
:101010008984d3008b05e800f0ff3700881f780033
:101020000604780090000700070278000001fd0028
:101030008101fd008c0007008702780085037200a3
:101040000778a300050032000001fd008101fd00ca
:101050009f0007004f04780000000600850372001f
:101060000748a30003003200f0ff2f00f1ff270024
:10107000f8ff37000000200001f82700888070008a
:10108000f4ff3700880178004848dd008081710056
:101090004848de00c850dd0001007000c850de0086
:1010a000060478000b0178001600070088807000a5
:1010b000d2ff37000500e0000500320017002000d5
:1010c0003a0007009dff370081037000f9ff3a00e6
:1010d000860078004f0678004f05be004f04be0022
:1010e0000000050083037100f9ff32002700200093
:1010f0002e00070094ff370001f82700868070005b
:10110000f4ff37000100e000260032006101110009
:101110007810e10023003c006022b8007010e1006c
:101120000400350080027800010078008000eb00a8
:10113000700151000200e00009003400700311004a
:10114000062add00822ade008603dd008782720027
:101150000200de00860bdd00070070008208de0062
:1011600084817100f4ff2700048262008481710091
:1011700004002800848262006102600005f0a6007d
:101180000000060004827100070032000000e80041
:10119000e0804800000006000002be006000b800c9
:1011a000efff37006000b80000000600889fbe0017
:1011b0000004eb006138e10016003a000100e00095
:1011c00008003a00c800de004800dd00880020006a
:1011d0000100e00003003a00c800de004800dd0026
:1011e000680444008184cf00e98454000600340080
:1011f0008908dd00f08314008703de00878070001b
:101200000900dd0009044400610214004f04be001f
:10121000000006000300e00008003a00c811de00ec
:101220004811dd00880020000300e00003003a00c0
:10123000c811de004811dd00680444008384cf003b
:10124000e9845400060034008919dd00f08314009d
:101250008713de00878171000911dd000904440055
:10126000e1021400e9ff37002700200001f0a70089
:1012700017002000470bde00f60fb200040032001a
:101280000643e8000a0032004702b30000000600ef
:1012900001037800f607b2000603700002003a006e
:1012a0000703b300000006008702b3000000060039
:1012b00001037800f607b200060370000200320056
:1012c0000770a000000006000760a00000000600f4
:1012d0000478a300040032000578a3000300320064
:1012e0000168a30001003a000200be000160a000f6
:1012f0000000060081017000270032008002eb0030
:1013000001f8a3000300320060001000e080180024
:1013100015002000f40720000202420020003400e3
:10132000f703200087036000060420000003630029
:1013300002082000000161004700de00c909dd004d
:1013400000807100c708de000600e00008003200df
:1013500087037100060032001000b0000180b00069
:101360000188a30002003200c108de000402e80088
:10137000f107b200f30f20000320e10003003d005d
:101380004722dd00810072002900370001f82700a4
:101390000000eb00260037006000b80000000600e7
:1013a000680212007f20e100020034006000b800f3
:1013b0001f0037006011b8007020e1000400350004
:1013c00080017800010078008000eb00700252007c
:1013d0000400e00009003400f00312000719dd00ea
:1013e0008419de000703dd00868171000400de0041
:1013f000070bdd00060070008408de00f7ff270001
:1014000083836300870371000600280003036300e1
:10141000070032000700e00003003a0061016000ad
:1014200002817300020032001000b0000180b000a1
:101430000500a6000000060001f0a0000000060064
:101440004f0ade004709de00f107b200f20fb200da
:101450000b003200f207b1000170a000c708dd00e8
:10146000c901de00838070004700dd000400a60093
:101470000000060060001000e08018000000060078
:10148000810f700001003a00000006008182cf0049
:101490000500e00010003e008082cf00ee82420096
:1014a0007028e1000400390007003e008000780049
:1014b0000000eb000e003700708312008600de0093
:1014c0000500dd000a003700708352008600dd0051
:1014d0000000eb0006003700e28252008508dd00c4
:1014e000708312000603de00868070000500dd00b8
:1014f0007507b0000501ea000400a6000000060020
:1015000060001000e080180000000600889fbe0008
:101510008a9fbe00841f78007c0007004f0078007f
:1015200011003300f0ff2f00838f6c0006003b009a
:10153000040565000a00a7000800370009f0a600ae
:101540001000200008003700820f5400838f5c00d9
:10155000030039001000200001003e0000002000c0
:1015600009f0a7000000ea004f05be004f04be00ce
:101570000000e00000000600881f780003047800e7
:101580000300e00007003d0060001000e08018004c
:1015900060011900e081190002003b0001f02d00fc
:1015a000030037000400070008f0a70001f0a000c6
:1015b0004f04780000000600889fbe008a9fbe008e
:1015c0000082700004027100048271002600320063
:1015d0000004be000200be006011b8006b092000cc
:1015e000950220000182cf000a0039000541b100b8
:1015f0000082cf00070039000541b1000982cf0009
:10160000040039000541b1000882cf000100390013
:101610000541b10005425200120032000a003b00b1
:1016200082817100610164008100d1000080d300db
:101630008984d3000884d3008b05e8000442e800c5
:10164000f7ff3a00070037000804440089844c0083
:1016500000004800818048008b05e9000442e90051
:10166000f9ff3a00030007004f05be004f04be001b
:101670000000060081002000618055000b003d0045
:101680000b00200061fe2f000100e1001d0034006e
:1016900082817100610164008904d1000884d30053
:1016a0000000e800faff3a007100200061006400c9
:1016b0000300700002006000090032006104440071
:1016c000e0844c000988a500050032008b05e80085
:1016d0006808e10002003a008904d1000884d300c0
:1016e000f20f20000258e10005003d00c75ddd005b
:1016f000f907b20089807500080078000000060034
:101700000bf827008b007800000005000004be00e5
:1017100014fc07000003be000405be000200be006a
:1017200010fc0700844f750000000600800178005f
:1017300002003700b15978000201e9000200e00020
:10174000fcff3a000000060080007800040037002b
:101750003104e00002003a000000510000000600e1
:10176000010178000108a300f9ff3a008101780027
:1017700031017800f4ef2f00020242000281ea00fa
:10178000020162000408280004016100f7ff320032
:1017900083007800010178003104e000fdff3a0089
:1017a00000005100000006000000fa00cfb89700ca
:1017b00068815700830407000080fa0000000600db
:1017c000050007005e000700ff020700af030700e7
:1017d000d703070031033700ec874700889fbe001e
:1017e0008a9fbe008c9fbe008e1f78000006780086
:1017f00001047800180790002805900098067800ea
:10180000cdb79f00b80590003202be002203be0093
:101810000400be000601be004f18de006011b800d3
:101820008000eb00d0b79f00e1b79f00f2b79f00a8
:1018300083bf9f00800478000900e00006003200aa
:101840006000b8006011b8000402500085825800a2
:1018500006035900878359000e00e000020035009e
:101860000d10a100cdb79f000900e00005003a006f
:101870004fb097000028a30002003a000038a300f0
:10188000020032008a00e900010037008a00780077
:10189000f8815700a2002000080078002903070003
:1018a0000900e00003003a00cfb097000128a30030
:1018b000080032000000e90000814500b1c2b30019
:1018c0000900e00001003200d1c2b30001497800f4
:1018d000050037000138a300030032000000e900d2
:1018e00001c2b30081757800480190000201e9004f
:1018f00000015100808045004fb297008a017800b6
:101900000c007800470407009c0090000188a300a9
:101910000400320098009000810f500001003d004b
:10192000010078004f0778004f06be004f05be004b
:101930004f04be00cf00b10000000600000006000a
:101940008f04b000889fbe008a9fbe008c9fbe009f
:101950008e1f7800809f9f00f19f9f00c3779f009c
:1019600001007800b0007800e1a79f001000780027
:10197000d0b79f00ff999700a3019000d3a79f00c5
:101980007f9a970044029000f4979f00ff9a970077
:10199000b50690003204be002205be006022b800e9
:1019a0006033b8000800be000a01be00af070700a0
:1019b0000000e00003003d000bf0a200d0c2b30025
:1019c000040037006fa397000628a3000800320028
:1019d000b0c2b300804e7800dfa397008703e90010
:1019e000c7af9f0010002000f0a79f000f00370036
:1019f000efa097000138a3000800320000c2b30036
:101a0000804e78005fa197000201e900c2af9f00fd
:101a100013002000f3a79f00040037005fa2970087
:101a2000c4af9f008002eb00f5a79f000800be0036
:101a30000a01be00c1ff0700f4ff2f00f5ff2f00d1
:101a4000f6ff2f00f7ff2700040260008582600088
:101a500006036100878361006000b8000200200077
:101a600003ff27000020e10001a8e10002b0e1002f
:101a700003b8e10010003a004f7397008600fb00a6
:101a80001104b100ffa3970007804600f98f5000b2
:101a900002003e00e18e200001003700218f20006f
:101aa0008b060700208f200027ff0700ffa097006c
:101ab00001014000140037000020e10001a8e1000e
:101ac00002b0e10003b8e100120036004f71970048
:101ad0008200fb001104b100ffa1970003804600c3
:101ae000f98f500002003e00618f20000100370096
:101af000a18f200076060700a08f200012ff0700ac
:101b00007fa29700040140006fa29700dfa1970019
:101b1000190237006022b8006033b8000800be0028
:101b20000a01be00510707000000e0006800320013
:101b30006000b8000200200003ff230080af9f0078
:101b400091af9f00a2af9f00b3af9f000007eb00d3
:101b50000802be000a03be00d4af9f00e5af9f009d
:101b6000f6af9f0087b79f00070037000e07e80019
:101b70000800be000a01be0080af9f0091af9f0029
:101b8000a2af9f00b3af9f006022b8000600200004
:101b9000470224000fa897009fa897002fa997003d
:101ba000bfa99700870807000004be000205be0019
:101bb0000002be000203be005fa89700efa89700d6
:101bc0007fa997008fb19700280707000000e00069
:101bd000e6ff3d000006eb000fac97009fac9700be
:101be0002fad9700bfad97002500370040ed2f00c7
:101bf000800f570019003d000c00e00016003a006d
:101c00006022b80006002000073524005fa8970076
:101c1000efa897007fa997008fb197006908070088
:101c20000002be000203be00d4af9f00e5af9f00dc
:101c3000f6af9f0087b79f006022b8000600200023
:101c4000073524000800be000a01be005d08070039
:101c50000004be000205be001c0020006022b80087
:101c600006002000470224000800be000a01be0052
:101c7000a50707000004be000205be000e07e9002c
:101c80000802be000a03be005fa89700efa89700f5
:101c90007fa997008fb19700f40607000000e000cd
:101ca000d2ff35000800be000a01be0080af9f00d1
:101cb00091af9f00a2af9f00b3af9f005fac9700b2
:101cc000efac97007fad97008fb597000800370005
:101cd0006022b8000600200007ff230084af9f00a9
:101ce00095af9f00a6af9f00b7af9f000007eb0026
:101cf000cf7297000500fb00fc050700d0779f001e
:101d00005fb39700600020000600e000010035008e
:101d10005fb0970071c6b300df73970081cf5300a7
:101d20000a003a00dfb097000100e0009b0132009a
:101d30009b0137008e0f50009f013c00d0af9f00e9
:101d400052c6b30082cf9f001e003700df7197009c
:101d500083cf9f000200370064c6b30084cf9f008a
:101d60000000e800d0af9f0060c6b3008fca9700a4
:101d700080cf520013003a000e00e00008003d0042
:101d80006000b8000200200003ff230080af9f0026
:101d900091af9f00a2af9f00b3af9f000007eb0081
:101da00061c6b30081cf9f0070c6b3005f7197001a
:101db000804f510003003200dfa997008e8141005f
:101dc000d3af9f000faa97009faa97002fab970051
:101dd000bfab970094b79f00a5b79f00b6b79f0011
:101de000c7b79f000800be000a01be00d0b79f0021
:101df000e1b79f00f2b79f0083bf9f000006eb0092
:101e00000802be000a03be00b49f9f00c59f9f004a
:101e1000d69f9f00e79f9f00310037001fb29700b9
:101e2000afb297003fb39700cfb397005fb0970072
:101e3000efb097007fb197008fb997003207070086
:101e4000950a07000004be000205be00ab060700ad
:101e50008002780085a79f001fb29700afb297005d
:101e60003fb39700cfb397000800be000a01be0041
:101e7000d40707005fb29700efb297007fb39700d7
:101e80008fbb9700cf0607000002be000203be0012
:101e900007f0a200d4b79f00e5b79f00f6b79f00f8
:101ea00087bf9f006022b800060020004702240080
:101eb0001fb09700afb097003fb19700cfb1970028
:101ec000110707000002be000203be0094b79f0086
:101ed000a5b79f00b6b79f00c7b79f000c06e800e4
:101ee000dfaa9700850f5600ccff35003f9c970076
:101ef000cf9c97005f9d9700ef9d97006022b800f0
:101f000006002000470124001fb09700afb09700e3
:101f10003fb19700cfb19700aa0707000002be00ab
:101f20000203be0094b79f00a5b79f00b6b79f00fd
:101f3000c7b79f005fb09700efb097007fb19700e1
:101f40008fb99700490607000000e0000f00350038
:101f50001fb29700afb297003fb39700cfb397007f
:101f60005fb09700efb097007fb197008fb99700ef
:101f70003e0607000000e00011003a008fa2970023
:101f80000508a300080032000d0037006000b8000b
:101f90006011b80090b79f00a1b79f00b2b79f0033
:101fa000c3b79f00060037006022b8006033b80056
:101fb00094b79f00a5b79f00b6b79f00c7b79f0013
:101fc0001fb29700afb297003fb39700cfb397000f
:101fd0000800be000a01be00800607000002be0025
:101fe0000203be0084a79f0095a79f00a6a79f009d
:101ff000b7a79f0050c6b3008fca970080cf52008a
:1020000003003a000003eb00d6b79f000100370041
:10201000deb79f007fa697000000eb0090b79f00ff
:10202000909f9f00b09f9f008e007800e1979f00d7
:10203000660037000faa97009faa97002fab970062
:10204000bfab97000fa097009fa097002fa197000c
:10205000bfa19700ac0607000f0a07000004be00ee
:102060000205be002506070000017800efa19700d9
:102070000348a3000c003a000200e0000a003a0006
:1020800070c6b3005f729700804f520006003a009e
:10209000dfb297000500e00003003d001fb397008a
:1020a0000607e800200037009f9b97000700e0002c
:1020b0000b003a005fb097000000e00008003d0010
:1020c000e0c2b30080767e000c06e800cfa897003f
:1020d0008100e900c1af9f0013002000939f9f0083
:1020e0008c8046001fb797000300370000c3b30081
:1020f000805878000e07e9000e00e000fbff3a0070
:102100001fb29700040646000c80460005c3b300ca
:10211000054841000c06e8000480ea004fab970038
:1021200000034300c6af9f000faa97009faa970025
:102130002fab9700bfab97000800be000a01be009e
:10214000200707000fa297009fa297002fa39700d8
:10215000bfa397001b0607000002be000203be00db
:1021600007f0a20084a79f0095a79f00a6a79f0045
:10217000b7a79f006022b800060020004702240095
:102180000fa897009fa897002fa99700bfa99700b5
:102190005d0607000002be000203be0084af9f0080
:1021a00095af9f00a6af9f00b7af9f00dfb297002b
:1021b0008502e900d5b79f003f9b97000603e80022
:1021c000b69f9f008e03780097b79f003f989700b7
:1021d000dfa89700810f500005003d007f99970010
:1021e0004200900065005000800f560091ff3900ba
:1021f0006f9797009f9997000300e00006003a0050
:102200006fa297000448a30003003200e0c2b300ad
:1022100080767e000c06e8000c8046000048eb004b
:1022200051c6b3008fca970081cf520036003a00e2
:102230007f9397008600e900018146000049eb008a
:102240008001eb000e00e00002003d000e07ea00f6
:10225000130020002200200081037800cfaa9700fd
:10226000000478000b00370081037800a4002000f0
:10227000110009000407d800010278000007780067
:102280000783460000c3b300004b42000201e9008f
:102290008502e9008700e9000e00e000f2ff3a0045
:1022a0000200e000f0ff3c00c5af9f00080078008e
:1022b00001824600b2c2b3000300e0000100320018
:1022c000d2c2b300024a78000101e90082804600d0
:1022d000cf7197000302fb001404b10053c6b30092
:1022e000f90f520001003e0053c4b3008348780048
:1022f0004faa97000482e900c4af9f00820f5600e6
:102300000100310072040700efa2970063806200b1
:10231000e20f500013003a004fab97000600e000b8
:10232000100034000d00780007fd0700040037009e
:10233000cfab970087804600ed7078000000e90081
:10234000ffa19700830f5000f9ff31000380460082
:102350004fa9970001032000850307000002eb004e
:10236000d4a79f000d007800f7fc07006fa297002c
:10237000dfa19700000178008d0078000f9897008a
:10238000a80107004f0778004f06be004f05be00aa
:102390004f04be008f04b1000000060010002000b2
:1023a000e40f470063fe3d00d0af9f0055c6b30069
:1023b00085cf9f0083fe37000e00e00066fe3500eb
:1023c000d0af9f0076fe37000200fa00889fbe0063
:1023d0008a9fbe00000578000104780002007800a2
:1023e00018019000a805900098007800b1bf9f00e8
:1023f000b80490000200e000020035000110a100c6
:10240000b1bf9f00ea815700820020008b00780056
:102410003002be002003be0008007800490007001b
:102420003fb99700f0006100030032000000e900ae
:1024300001c3b300817478003fb99700e8006100e0
:10244000030032000000e90001c2b300817478008b
:10245000480190000201e900000151008080440021
:102460003fba97008b0178000a0078006d010700e1
:102470009a0090000188a3000400320098009000a8
:10248000810f500001003d00010078004f05be00a3
:102490004f04be000080fa0000000600ea874700f3
:1024a000889fbe008a9fbe008e1f780000047800bf
:1024b000030078007287570084e2260055c7260083
:1024c000049fbe00c3962200030f78006c8757005c
:1024d000004feb0011059000a104900091057800d9
:1024e0000200e0000200320002077800010037001d
:1024f000728757000000e00002003a000e007800ea
:1025000091fc07000a00e000030035008a0f50002c
:10251000010036000a0078000b027800890178007b
:10252000000178008e007800080078003d01070067
:102530004f0778004f05be004f04be00af00b1004a
:1025400000000600f4874700889fbe008a9fbe00f7
:102550008c9fbe008e1f78000605be000404be00de
:1025600081bf9f0082b79f00f3b79f00b00090002b
:10257000e1b79f001301780092b79f00900690008a
:10258000400690000c06e9000d00e00001003d004f
:102590001d002000efb197000c8041000048eb00c7
:1025a0001e0020001f0037000c06e9000fb0970046
:1025b000cf80de006109b900a0b79f00b1b79f00ce
:1025c000c2b79f00d3b79f000203be000002be0047
:1025d0000800be000a01be004d0807000007780091
:1025e000efb097000c80400003c3b30003484700de
:1025f0008d06e9000fb897000000e90080bf9f003a
:102600002fb29700bfb297004fb39700dfb3970088
:102610000800be000a01be00360807000205be0021
:102620000004be000c00e0000d003200e00f54007a
:10263000e08f5c00e00f5d00e08f5d00daff3a00a4
:102640000d00e000d8ff3c008fb897000100e000cb
:10265000030034001fb197000218a300d2ff3a0014
:102660000e00e00002003a00ffb197001340a10005
:102670000c0078004f0778004f06be004f05be00e3
:102680004f04be004f01b100000006000200fa0036
:10269000889fbe008a9fbe008004780001047800f5
:1026a000020078001801900028059000980078003a
:1026b000b1bf9f00b80590000200e00002003500a5
:1026c0000110a100b1bf9f00ea815700a2002000c5
:1026d0008a0078003002be002003be0008007800a7
:1026e00098ff0700480190000201e9000001510035
:1026f000808045003fba97008a0178000900780081
:10270000c8000700990090000188a300040032006f
:1027100098009000810f500001003d0001007800fa
:102720004f05be004f04be000080fa000000060006
:10273000fa874700889fbe008a9fbe008c9fbe001c
:102740008e1f7800800478000104780082057800ec
:10275000180190002805900018077800b800900034
:102760000200e000020035000e10a1000100370059
:102770001200200070006700e0b79f0009003200df
:102780003b02be002b03be00e00f5200e08f5a0058
:10279000e00f5b00e08f5b00020032008a86e900f8
:1027a000010037008a067800e8026700f5b79f004d
:1027b000010032008d06e9003b02be002b03be0083
:1027c000e4af9f00f5af9f0086b79f0097b79f00cb
:1027d000480690000c06e9000c8040000048eb0021
:1027e000efb297007fb297008903780081047800e8
:1027f000d8af9f00020478008bbf9f008a05780045
:10280000034578002a0037000c06e9006fab9700fb
:102810006f006300e90f500002003c000003b000ad
:10282000010037007005b0000a03fb001604b10078
:10283000f90f53000c003e00000378000650a00082
:102840001606b100f90f530007003e00b4b79f0011
:10285000a5b79f00c7b79f002b030700cfb3970012
:10286000afb297003fb2970080747e000804e90081
:102870008d06e9006fa89700ffa897000fb1970099
:102880009fb19700460020008301d1000281d30050
:102890008180d3000080d3000603e900faff3a00ec
:1028a000e0af9f00f1af9f0082b79f0093b79f00fa
:1028b000e10f56000f0036006fa89700ffa89700a1
:1028c0000fb197009fb19700e00f5000e08f5800c4
:1028d000e00f5900e08f5900cbff3a000800e000fc
:1028e000c9ff3c000d00e000020034000e18a300f8
:1028f000c5ff3a0089007800f4b79f00870478008c
:102900005fac97008a4178000b0578008fbd970077
:102910000500e000100032003b02be002b03be00a9
:10292000e4af9f00f5af9f0086b79f0097b79f0069
:10293000e00f5200e08f5a00e00f5b00e08f5b0079
:10294000050032000c06e90083707e000c06e900e9
:1029500000c3b30080707e00ffb297000500e00066
:10296000030032000c06e90000c2b30080707e0054
:10297000480190000201e9000c0151008c804000e8
:102980000e0278008a01780009007800250007000f
:10299000990090000188a300040032009800900084
:1029a000810f500001003d00010078004f077800c2
:1029b0004f06be004f05be004f04be00af01b10080
:1029c000000006008201780001017800f1ff270075
:1029d0004a023700889fbe008a1f78008004780072
:1029e0004900900002047800800f54000100360076
:1029f00000047800080178006a8544001a00780015
:102a00004afb07001a004400000d7800e8844400e7
:102a1000990c14000048eb004f0578004f04be00ed
:102a200000000600f2874700889fbe008a9fbe0014
:102a30008c9fbe008e1f780080047800010578000e
:102a400002047800830578006107620002003a0002
:102a50008b0f540008003900080178008a007800c4
:102a600009007800dbff07008b0f540002003900db
:102a7000880578001e003700088655000c01780094
:102a8000f00f560001003600020120000102200074
:102a90007e805700b60107008c06780005003700dd
:102aa00002012000fe80570009007800c9ff0700de
:102ab000f0865600ef8f5600f9ff3e004461de00bd
:102ac00000ff2f000091b90002014600fe80570070
:102ad00009007800bfff07000e00e00004003a0084
:102ae000080178008a00780009007800b9ff070023
:102af0000b0078004f0778004f06be004f05be0060
:102b00004f04be002f01b1000000060000000500c8
:102b10000000050000000500000178000040eb0007
:102b20008080fb0081804000838d200063c278009c
:102b30000404e00003003a00908d200060c078009b
:102b40000000060092017800934f520004003a0002
:102b5000908d200060c078000309e8000100370074
:102b60000040e800ea4f5000edff3600000006008c
:102b7000f6874700889fbe008a9fbe008c9fbe00dc
:102b80008e1f7800800478000104780083057800a7
:102b9000040678000000eb00c0b79f008080eb00c7
:102ba000d1b79f00e0b79f00f2b79f000008200058
:102bb00080bf9f0098007800010078000005eb00be
:102bc000010037000a05e800304178000204e00007
:102bd0000300320053c2b300834f5100f9ff3a00a3
:102be0000a00e000040032000a01780009007800c1
:102bf00078ff0700180c45001807780050c2b30092
:102c00009e4f100033013a000e07e8000e0c7800ca
:102c100010003700cfb097000100a0000b00370074
:102c2000cfb097000110a00008003700cfb0970088
:102c30000120a00005003700cfb097000130a000b0
:102c400002003700cfb097000140a000c1b79f003d
:102c5000000ce8001800780090407800b2c2b30081
:102c600082cf5000f1ff320007003c0002c2b300e7
:102c700082cf5000f0ff320032c2b30082cf50004a
:102c800007003a00efff3700d2c2b30082cf5000f6
:102c9000e0ff320002c3b30082cf5000e0ff3200f9
:102ca000a2c2b30082cf50000d003a00000ce80031
:102cb0001c80e900000e780010007800e0b79f004b
:102cc0000000e0000f003d00cfb097000100a2001f
:102cd000c1b79f000000ea00e0b79f00090037007d
:102ce000d5010700e0b79f0001003700000ce800a5
:102cf000180078009000fb000103b100e98f50003c
:102d0000faff36004fb097000008a300020032001f
:102d10000010a100c0b79f0018007800e1c2b30006
:102d200090cf100016003a008000eb00d1b79f0052
:102d30000000e800000c7800a1c2b30090cf1000a2
:102d400006003a00000ce8001c80e900000e780044
:102d500010007800d0b79f0009003700b6010700c7
:102d6000d0b79f0001003700000ce8001800780081
:102d70009000fb000103b100e98f5000faff36001c
:102d80000800780064ff070080467800180078008b
:102d90001000fb00d501070091062000810f5000b4
:102da0003800320012003c0041062000810f500024
:102db000340032000a003c0011062000810f500050
:102dc0002000320031062000810f50009a003200ae
:102dd00051022000810f5000ae003a00a7003700da
:102de00071062000810f5000aa003c0082003700cd
:102df00001072000810f50005c00320007003c00fa
:102e0000e1062000810f500074003200f10620001e
:102e1000810f50009f003a00390037005107200011
:102e2000810f50002700320081072000810f5000e1
:102e30004200320031072000810f500095003a0017
:102e4000850037008d80fb000c01780000fe2f000c
:102e50000f004000b30107000000e0009c003200ba
:102e600018007800000ce8009041780002fe2f0066
:102e70000f014100f88057000900780024ff070087
:102e80000e0037008d80fb008c01780012002000be
:102e900000fe2f000f004000c10107000000e0000d
:102ea0008b003200180ce80002fe2f000f014100d9
:102eb000f88057000900780047fa07000005450030
:102ec000840037008d80fb008c0178000001eb004e
:102ed00000fe2f000f004000b10107000000e000dd
:102ee0007b003200180ce80002fe2f000f014100a9
:102ef000f880570009007800e4fd0700efff370075
:102f00008d80fb008c0178000001eb0000fe2f009b
:102f10000f004000a20107000000e0006c0032003a
:102f2000180ce80002fe2f000f014100f880570046
:102f30000900780024fd0700e0ff37008d80fb00ca
:102f40008c0178000001eb0000fe2f000f00400014
:102f5000930107000000e0005d00320018007800d7
:102f6000000ce80090417800160037008c017800d2
:102f70000001eb00010f200000fe2f000f004000b9
:102f8000870107000000e00051003200180ce80043
:102f90000fb097009fb097002fb19700bfb1970077
:102fa000e00f5000e08f5800e00f5900e08f59000b
:102fb00003003a008001eb00228d20004000370022
:102fc00083c7b30002fe2f000f014100f8805700b5
:102fd00009007800d6fd0700b8ff37000b01450057
:102fe0008d80fb008c01780000fe2f000f00400058
:102ff000c4010700360037008d80fb000c0178000b
:1030000000fe2f000f004000460107000000e00016
:103010002f00320018007800000ce8009041780082
:1030200002fe2f000f014100f880570009007800d0
:1030300043fa0700a1ff370000c8b30080cf560055
:1030400023003a00180ce8001c80e900000e78000c
:10305000104078000d00370000c8b30080cf560044
:103060001b003a00180ce8001c80e900000e7800f4
:103070008001eb00100178001100370001c8b30097
:1030800081cf560012003a00180ce800e0df9f00e4
:103090000800370050c2b300e0df9f000e0c78003c
:1030a0000000eb00c0b79f00e0b79f008080eb00fe
:1030b000d1b79f0013002000e2fd2f000f01410057
:1030c000f880570009007800f4fc07007bff370008
:1030d000180ce8000a0078004f0778004f06be0081
:1030e0004f05be004f04be006f01b1000000060096
:1030f0008200fa00889fbe008a1f780000057800d1
:1031000082047800c13f9f000004eb0010003700ec
:103110000902780088017800a2f72f000f01410012
:1031200081f72f008f8040000a00780090fe070092
:1031300008004000880f500004003d00b00420004b
:10314000f04788000084eb0004003700000478009a
:103150004f3897001004e000edff3a0008007800b7
:103160004f0578004f04be000080fa000000060002
:10317000889fbe008a9fbe00800478000200e000a5
:103180005a00320001407800814c7800828144006e
:10319000f1f99f00e20f510054003600914498006d
:1031a000a1449800e1f99f00d1f99f00e60f51007a
:1031b0004e003600b1449800c1f99f00e80f51005d
:1031c0004a0036000905ea00630565000a844400e8
:1031d0000a055100c1ff2f00010565000080fb00ba
:1031e0008000eb001210200013102000ef010700f8
:1031f000008cbe000a01440060b99f0071b99f00b5
:10320000e80f55003900360020049800310498007a
:10321000400498005104980020b99f0031b99f00e4
:1032200040b99f0051b99f00f80f55002f0036009c
:103230006004980071049800000c9800110c98002c
:10324000200c9800310c9800400c9800510c98000c
:1032500020b19f0031b19f0040b19f0051b19f004c
:1032600060b19f0071b19f0000b99f0011b99f002c
:103270006401640078014100020444000205550025
:103280006011b8000203be000002be000403be00cd
:103290006022b80000007200818072000201730099
:1032a000838173000f00370008027800009abe0087
:1032b000029abe00009abe000292be00000c980066
:1032c000110c9800220c9800330c9800400c9800c8
:1032d000510c9800620c9800730c98000a02b1001f
:1032e0000802b000ff0f5500efff3e000900780014
:1032f0004f05be004f04be0000000600f2874700e5
:103300008e1f780002027800030178000000e000c0
:103310000200320000077800010037007287570072
:103320008002eb000100e000010032008102e900b0
:1033300070805700060009000018eb0072805700eb
:1033400000a8eb002310200093bf9f00aebf9f009a
:10335000b1bf9f00c5bf9f000100e00004003d0019
:10336000b0042000f04788000080eb000500370023
:10337000004feb00eebf9f00debf9f00840078008f
:10338000030007004f0778002f01b100000006007e
:103390000200fa00881f780000047800e2bf9f0056
:1033a000648157000800780051ff070098009000e2
:1033b0000148a300010032000080eb004f047800b8
:1033c0000080fa00000006000000fa00cfb8970065
:1033d000688157007bfd07000080fa0000000600ae
:1033e00057f93700810178000002780030417800f9
:1033f000b14f510002003a000204e000f9ff3a0028
:103400009480fb001380fb00008050000000060049
:10341000800078001000200002022000828f5000ff
:1034200004003200e9805000e48f500001003600b3
:103430000000eb0000000600889fbe008a1f780095
:103440008004780009047800880478003945780001
:103450000a00fb00eeff07000000e000f9ff3a0061
:10346000b0c2b300804f550005003200d0c2b30097
:103470008000eb00804f550005003a000200370045
:103480008000eb0001003700110020000804e80074
:103490000000eb00030037006a02b900020052008e
:1034a0000003b0003801fb0003fd2f0082814100c2
:1034b000e98f5100f8ff36000100e00001003a00fa
:1034c0000000ea004f0578004f04be00000006002f
:1034d000881f78000004780008007800c300070007
:1034e000080078004f04780000000600f1fb2f0070
:1034f00080804000f98f500001003e000050a00085
:1035000000000600f9ff3700f1f92f00808040002d
:10351000f98f500001003e00f005b20000000600e7
:10352000f9ff3700881f78000004780000082000a9
:10353000808f50001700350010082000808f500049
:103540000b00340030082000808f500011003a003a
:103550009200780068805000000978003002be00b8
:103560002003be00049cbe000694be000700370086
:103570009202780064805200000978001000be00ba
:10358000bf000700009cbe000294be001000200097
:10359000010037000000eb004f0478000000060037
:1035a00084082000848f50001d0032000d003c0074
:1035b00014082000848f50002700320002003c00d5
:1035c000040820000400370024082000848f5000e5
:1035d0002a00320044082000848f500048003a003e
:1035e0003b003700040a2000848f50002c0032007a
:1035f00004003c0004092000848f500040003a0081
:103600002d003700020c2000828f50001e00320077
:10361000020f2000828f500039003a00300037003e
:103620009380e9000200e000050032008109780083
:103630001102fb00cfa2de00612bb9002d00370084
:1036400081097800114278000482fb008002eb00bf
:103650006033b8002700370013027800e4005200fe
:103660000200e0000a003200810978001102be0069
:103670004fabde00860378001e003700930278000f
:10368000e88052000e00370093027800e480520078
:10369000810978001102be006033b80015003700c0
:1036a0009380e9008109780011027800cfa2de0042
:1036b000612bb9000f00370013037800e8005300b6
:1036c000810978003102be002103be0009003700e5
:1036d0009380e9000200e00002003200f1ff3700b1
:1036e0009380e90081097800110278008002eb00e4
:1036f0006033b8000498be000690be0010000500bc
:103700000000050044082000848f5000270032008c
:103710000a003c0014082000848f50001c00320076
:1037200024082000848f5000260032000408200066
:10373000848f50002c003a001c0037000409200040
:10374000848f50001f00320004003c0084082000d9
:10375000848f500024003a0007003700040a20003c
:10376000848f500011003200040c2000848f500020
:103770001d003a00060037009380e90081097800b7
:103780009100780001087800824878001500370021
:103790009380e900810978009100780001087800a1
:1037a000cf91de008288be000e0037009380e900d2
:1037b000810978009100780001087800820878007b
:1037c000080037009380e9008109780091007800b3
:1037d000010878006112b900612bb9008498be001d
:1037e0008690be0010000500000005000101780071
:1037f00080017800008268000408a3000500320000
:103800001300370032407800805978000004e0004f
:1038100014003200030278000208a300f9ff3a0006
:103820000300780001003700031878008200780058
:10383000b2017800f5ef2f00838242000382ea0094
:10384000048262000508280005026200f6ff3200cb
:103850000002780031417800025878000204e0004c
:10386000fbff3a0004007800000006008f1fd10023
:10387000750207008f87e9000000e00000000600e5
:1038800081037800b7f307000001be006000b800b4
:103890000478a30013003a006220e10015003e0006
:1038a0000d0039008301d1000281d3008180d30053
:1038b0008301d1000281d3008180d3008301d10034
:1038c0000281d3008180d3000538b000c42add0016
:1038d000f300b2008381720007f0a70003f0a0009c
:1038e0000000060083ff2700020020006110b900dd
:1038f000f9ff370003ff2700f7ff37001400fa0035
:10390000889fbe008a9fbe008c9fbe000004be0040
:103910000205be00680047000a90be000890be0085
:10392000840207000070a7000bf0a10030432000c4
:103930009e02900080825200b0fe2f000028e1001d
:1039400011003d00b0fc2f000028e10015003400fc
:103950001e0990008e0890007e0090000501b000c6
:103960000201d1008180d3000080d3008502e800ed
:10397000fbff3a000b00e000a9023b0060001000d2
:10398000e0801800a6023700f0ff2f00f1ff2700ab
:103990000b00e000a2023b00010028000000200014
:1039a0009f0237006000b8009d023700020ab9008c
:1039b000001bb9000200b8008100420081004300f2
:1039c000000006008c9fbe008a9fbe00889fbe003c
:1039d000ca0107000bf0a200040037008c9fbe0054
:1039e0008a9fbe00889fbe00c40107000c48e1000a
:1039f0000b003a000c40e100020032008b0107008e
:103a0000400037008b066d003e0032000af0a10036
:103a1000f3012000f2ff2f006110b90039003700d8
:103a20000c40e100370032000940e100010036009f
:103a30007e0107008a856d00cf5dde000b057500f5
:103a40000006eb008804fd008904540001003200e8
:103a50007d0107000a04e00011003a000800e000c0
:103a6000280032000400400085804800060149001b
:103a7000878149000358a300180032008301d10058
:103a80000281d3008180d3000080d3000c86d30054
:103a900001003900610676000804e80018003700cc
:103aa00004005000858058000601590087815900a4
:103ab000060031000af0a2000c06ea0060001800bf
:103ac000e080180060011900e081190003003a004d
:103ad0000004eb000005eb000a0037000348a300d8
:103ae00007003a000c0646000000480081804800ac
:103af00002014900838149000804e900f7ff37000b
:103b0000af013700c90137008c9fbe008a9fbe00fd
:103b1000889fbe00790107000b056d000940e10098
:103b20000a003a000800e000020032000c40e10008
:103b300006003a000af0a1000c047800f30120000e
:103b4000f2ff2f006110b9009d0037000c40e1002a
:103b50009b0032000800e000990032000c48e100b0
:103b600002003a000004eb00030037000900e00007
:103b700004003a000c0478006000b8006011b8003e
:103b80008f0037000348a30006003a000000400001
:103b90008180480002014900838149000804e9004e
:103ba000f8ff37000748a30006003a00040242006d
:103bb00085824a0006034b0087834b008904e90095
:103bc000f8ff3700fd3f20008d84540009045400a5
:103bd0008a1f7800881f780000047800810478002c
:103be00002057800830578006000b8006011b80015
:103bf0000d042000050037000804440089844c00af
:103c00000a054d008b854d00080031000404540066
:103c100085845c0006055d0087855d008381d20098
:103c20008d06d300f4ff3b00070037000404440076
:103c300085844c0006054d0087854d008381d200a8
:103c40008d06d300ecff3b000804440089844c003f
:103c50000a054d008b854d00080031000404540016
:103c600085845c0006055d0087855d000281d200c9
:103c70008d06d300f4ff3b00070037000404440026
:103c800085844c0006054d0087854d000281d200d9
:103c90008d06d300ecff3b000804440089844c00ef
:103ca0000a054d008b854d000800310004045400c6
:103cb00085845c0006055d0087855d008180d200fb
:103cc0008d06d300f4ff3b000700370004044400d6
:103cd00085844c0006054d0087854d008180d2000b
:103ce0008d06d300ecff3b000804440089844c009f
:103cf0000a054d008b854d00080031000404540076
:103d000085845c0006055d0087855d000080d2002b
:103d10008d06d300f4ff3b00070037000404440085
:103d200085844c0006054d0087854d000080d2003b
:103d30008d06d300ecff3b000b00e00004003d00cb
:103d40000404440085844c0006054d0087854d0021
:103d50000006eb008301d1000281d3008180d300f3
:103d60000080d3000c86d3008301d1000281d300f0
:103d70008180d3000080d3000c86d30089047400b6
:103d80008b0575008b84740001003200610676009b
:103d90004f0478004f0578000348a30007003a005d
:103da0000c064600000048008180480002014900de
:103db000838149000804e900f7ff3700000137005c
:103dc0001a0137008c9fbe008a9fbe00889fbe00ec
:103dd000ca0007000b056d008a0578000c40e10061
:103de00008003a000900e00082003a000af0a10051
:103df0000c047800f3012000f2ff2f006110b900dd
:103e00007c0037000c48e10004003a0087000700fe
:103e10000900e00077003a00f4ff37000800e000f6
:103e2000740032000900e00002003a007f00070041
:103e300070003700ed3f20008d84540009044400d9
:103e40008a1f7800881f7800871f7800861f7800f7
:103e5000851f7800841f7800cb19dd00c515de00b2
:103e60008b8571004b11dd00450dde000a057100e8
:103e7000cb08dd00c504de00898470004b04dd0042
:103e80000440b8000546b8008c80400060814e00b8
:103e9000044eb8008c8040000d0149008001eb0009
:103ea0000318ad000456b8000c0141008d81490093
:103eb0000002eb000420ad000646b8000c014100f2
:103ec0008d81490060024a00054eb8000c01410096
:103ed0008d81490060024a000556b8008c8141007e
:103ee0000d024a008002eb000528ad000746b8002d
:103ef0008c8141000d024a00e0824a00064eb80063
:103f00008c8141000d024a00e0824a004f06780091
:103f10000c5eb8008c8141000d024a00e0824a002c
:103f20000656b8000c0242008d824a000003eb00e6
:103f30000630ad00074eb8000c0242008d824a00e8
:103f400060034b004f0678000c5eb8000c02420084
:103f50008d824a0060034b000756b8008c824200f5
:103f60000d034b008003eb000738ad004f067800cf
:103f70000c5eb8008c8242000d034b00e0834b00c6
:103f80004f0678000c5eb8000c0343008d834b0095
:103f90004f0478004f0578000748a3000a003a0054
:103fa00000004000818048000201490083814900ef
:103fb00004024a0085824a0006034b0087834b00b7
:103fc0000804e900f4ff37000306780080807000e1
:103fd000828070000100320061067600870178005f
:103fe00006017800850078000400780088047800d5
:103ff000780037008d0037008c06460002003a003a
:104000000000a6000000060060004800e0804800b4
:1040100060014900e08149000350a600000006004d
:104020008301d1000804e800000006000002fd0042
:104030008102fd000203fd008303fd008804fd00f2
:104040008a05fd00000006007048e1001a003900f2
:104050007d0320000d48e1000a0039008105700051
:10406000830671008c8575008d8575000006eb0058
:104070000cd8e700610676006000b8006011b80057
:10408000000006007048e1000b0039008c05780044
:1040900000067800010078008200780003017800b3
:1040a0008001eb0003d8e70061067600f08454003d
:1040b000f4ff3a00000006006160e1000c48ad002a
:1040c000f08514008b06dd000966de000d06760023
:1040d0008b0edd000900de000d0070008b16dd0088
:1040e0008908de008d8070008b1edd000911de0066
:1040f0000d0171008919de00000006000d00280086
:10410000fc7f20000d856100441cde00ef81610012
:104110000c046400010032000340a0008d856300a0
:10412000c43cde00ef8363008c8464000100320035
:104130000740a0000c40e10006003a00ef86610055
:1041400082867600818676008086760001003200c5
:10415000180037000c48e10007003a00ef866300c2
:104160008686760085867600848676000200320098
:10417000aeff07000f0037000348a30005003a0018
:104180008106700082867600838676000100320008
:104190000804e8000748a30005003a0085067200fd
:1041a0008686760087867600010032008904e80062
:1041b00000000600cf047800cf0578001b00370010
:1041c00000027800810278000203780083037800ff
:1041d000880478000cf0a70087ff0700fd7f20000f
:1041e0000d40e100040035000d0478006000b800c7
:1041f0006011b8000d0037000800e0000b003c0023
:1042000004007800850078000601780087017800b6
:10421000e18414008cff07000cf0a70076ff070074
:104220000004eb000340a7000804e8004444dd005c
:104230006fc56100880175004f04be004f05be00c8
:104240004f06be0000000600889fbe008a9fbe0089
:104250008c9fbe000404be000605be00809fbe0009
:10426000829fbe0021000700040678000800be00ff
:104270000a01be001d000700840678004f03be003f
:104280004f02be008d4f76007fb0970013003300c1
:10429000f0ff2f008b8f6b0006003b000d066600c1
:1042a0000c00a7000a00370007f0a600100020004d
:1042b0000a003700880f5200898f5a008a0f5b006e
:1042c0008b8f5b00030039001000200001003e00ce
:1042d0000000200007f0a7000000ea004f06be0023
:1042e0004f05be004f04be000000060005ff27007a
:1042f00005826100070032000428e100010032005d
:10430000240005000600070001003a0044000500f3
:104310000408050002000700f9ff3a001400050038
:104320006f82610081027000850271008502720057
:1043300000000600800078005002be005003be005e
:104340004439de00f700b200f37f20000301610072
:10435000090032000218e10016003a0085017200df
:1043600083017300838173000008200015003a0068
:1043700040002000130037008501720083017300a4
:104380008381730005003a0004a8be0006a8be00a1
:10439000100020000b0037000201e9000402420077
:1043a00085824a0006034b0087834b000748a30021
:1043b000f9ff32000740a00004a8be0006a8be0016
:1043c0002000200080009800920098000000060065
:1043d000680447000294be000094be00fc0447003d
:1043e0008694be008494be0009007800d1ff0700c7
:1043f00008007800cfff070099007800814f700017
:104400000b003b000800be000a0007004f00b1008f
:1044100003003700f3ff2700f2ff2f006110b900ff
:104420004f06be004f05be004f04be000080fa00dc
:1044300000000600e48240001078a300070032006c
:10444000640240001178a3003400be001401be00d5
:10445000040032000330a700000006003500be0053
:104460001501be000330a00000000600889fbe00ba
:104470008a9fbe0030044200b0844a0030054b00e1
:1044800090854b006000b1000898be000a90be0005
:104490000440e10005c8e10006d0e10007d8e100d2
:1044a00002003100680040001008e8004f05be001f
:1044b0004f04be0000000600889fbe008a9fbe0019
:1044c0003004be002005be000418540005985c00ae
:1044d00006185d0007985d00110020000440e1000f
:1044e00005c8e10006d0e10007d8e100010039006d
:1044f0008000eb00108810004f05be004f04be0086
:1045000000000600f4874700889fbe008a9fbe0017
:104510008c9fbe008e1f7800d0b79f00e1b79f0030
:10452000f2b79f0083bf9f000605be000404be00d3
:10453000cfae97000000eb00c0b79f00b0b79f0060
:10454000a0b79f0090b79f0080b79f00000678003b
:104550004fb09700000140000000e00006003d0061
:104560003c0007000f074700450007000f00400010
:10457000beff070005003700360007000f074700a1
:104580003f0007000f004000cbff07004fb7970028
:104590000e00e0000c0035005fb29700efb297000c
:1045a0007fb397008fbb9700100020000100200010
:1045b0006011b80000027200818272000203730071
:1045c000838373001c0007000c06e8000104200030
:1045d000810f5600deff3a000e00e00005003d00ae
:1045e0000802be000a03be0000fe2f000f004000bc
:1045f0009eff07000d00e00005003a000fb2970093
:104600009fb297002fb39700bfb397000a0007002f
:104610005fb09700efb097007fb197008fb9970018
:104620004f0778004f06be004f05be004f04be0086
:104630004f01b10000000600010007000000060065
:1046400094b79f00a5b79f00b6b79f00c7b79f005c
:10465000000006009fb097004f08de0002017000c6
:10466000a2b79f000fb097004f01de00818040008d
:104670008100710091b79f000efe2f000000060020
:10468000de0078004f09de000000400000007100ed
:1046900080b79f006fa897004f01de008180400027
:1046a000010f71000e0007004f3ade0000004000cd
:1046b00004007000e0af9f00090007000402420000
:1046c00085824a0006034b0087834b00dcff07000e
:1046d0000802be000a03be0000fe2f000000060014
:1046e0001fb29700afb297003fb39700cfb39700c8
:1046f00000000600881f780018002000881f78003e
:1047000080ff07008f87e9004f0478000000060053
:10471000801feb007bff07008f87e9000000060089
:10472000889fbe008a9fbe00e00f5000e08f5800b7
:10473000e00f5900e08f59000c003d006044b800c4
:104740006055b8000000540081805c0002015d00eb
:1047500083815d00180020001500070008003d005f
:10476000180007000004eb00050037000004eb0010
:104770000f00070002003d00120007001800200093
:10478000dcff07000800e000060032006022b800ed
:104790006033b8000000520081805a0002015b00c3
:1047a00083815b004f05be004f04be000000060081
:1047b000e00f5200e08f5a00e00f5b00e08f5b00db
:1047c000000006006044b8006055b80004025400c0
:1047d00085825c0006035d0087835d0000000600a3
:1047e000889fbe008a9fbe008c1f7800e00f50009b
:1047f000e08f5800e00f5900e08f59000d003d0098
:104800006044b8006055b8000000540081805c002e
:1048100002015d0083815d001c0020000820e10092
:1048200009a8e1000ab0e1000bb8e1000d003d006d
:10483000080037000006eb00e00f5200e08f5a003e
:10484000e00f5b00e08f5b0006003d006044b800b5
:104850006055b8000402540085825c0006035d00c8
:1048600087835d00aaff07000c00e000060032000d
:104870006022b8006033b8000000520081805a0006
:1048800002015b0083815b004f0678004f05be008c
:104890004f04be00000006001800fa00889fbe000a
:1048a0008a9fbe008c1f78000004be000205be0077
:1048b0000802be000a03be00443ade00f07f20007a
:1048c0000006620020432000800f560067003c0075
:1048d0006022b8006033b8000800be00e3fb0700a8
:1048e0000000e000610032000802be000a03be00c2
:1048f000b4b79f00c5b79f00d6b79f00e7b79f002a
:10490000e00f5200e08f5a00e00f5b00e08f5b0089
:104910000b003d006022b800060020000733240091
:104920000800be000a01be0026fc07006022b80095
:10493000060020000733240028fc07000a00370087
:104940006022b80006002000073324000800be00e3
:104950000a01be0021fc07006022b800060020000a
:104960000733240017fc07000802be000a03be003c
:1049700014fc07000002be000203be00f4b79f0053
:1049800085bf9f0096bf9f00a7bf9f00e03f20000c
:10499000800f560017003c007fb097008fb897003b
:1049a0001fb99700afb99700f0af9f0081b79f0084
:1049b00092b79f00a3b79f006044b8006055b8004d
:1049c0003fb29700cfb297005fb39700efb3970065
:1049d000e00f5200e08f5a00e00f5b00e08f5b00b9
:1049e00022003d006044b8000a0020000bff2b00ad
:1049f0001e0037006022b8006033b8007fb0970017
:104a00008fb897001fb99700afb997001e00070035
:104a10000000e0000c0034007fb297008fba9700ce
:104a20001fbb9700afbb97000800be000a01be0085
:104a3000eafb07006022b8000600200007ff230001
:104a4000e0fb0700070037007fb297008fba97009e
:104a50001fbb9700afbb97000800be000a01be0055
:104a6000defb07000004be000205be000800be0019
:104a70000a01be004f0678004f05be004f04be007d
:104a80000080fa0000000600809feb00eefd0700aa
:0c4a90008f87e9000000e0000000060035
:020000040000fa
:104a9c00244d000043410000434b00002c45000016
:104aac004e4100002c3100002a000000484c000050
:104abc005245000046000000484c0000454e0000e6
:104acc0041000000244d000043540000454d0000ff
:104adc002c2500002e320000662a00000024000065
:104aec004d430000414c0000452c0000252e0000d9
:104afc00326600002c2500002e320000662a0000d1
:104b0c00002400004d430000464200004b2c0000e6
:104b1c00252e0000326600002c2500002e320000ed
:104b2c00662c0000256400002a000000535400008d
:104b3c0041540000555300003a430000005200005d
:104b4c003a2d0000303000002e300000303b0000c9
:104b5c002d300000302e000030300000000000002e
:020000040000fa
:104b6c000a00fa00881f7800e800470080087800e7
:104b7c006800470010007800cf80de00f1ee0700df
:104b8c0002002000a3472400f6ef070002002000db
:104b9c00139e2400d2f00700008fbe0002e02f000d
:104bac00f36f24001e00be00eeef07006401470007
:104bbc000089be0018c0b30064004700020020004a
:104bcc0003f823001000be00b9ee07000000e0005f
:104bdc00010035000044eb000804e000090032003d
:104bec00010e800030ff2f0000806000000e880056
:104bfc001e00be00b2ee070000007800200e8800f8
:104c0c004500370018c0b3006400470002002000c4
:104c1c00030824001000be00a5ee07000000e00011
:104c2c00010035000044eb000804e0000d003200e8
:104c3c00010e800030ff2f00008060000020a000db
:104c4c00000e880002002000030824001e00be0095
:104c5c00c4ef07009aee070000007800200e8800d1
:104c6c002d00370018c0b30064004700020020007c
:104c7c00031824001000be008dee07000000e000b9
:104c8c00010035000044eb000804e0000d00320088
:104c9c00010e800030ff2f00008060000030a0006b
:104cac00000e880002002000031824001e00be0025
:104cbc00acef070082ee070000007800200e8800a1
:104ccc001500370018c0b300640047000200200034
:104cdc00032824001000be0075ee07000000e00061
:104cec00010035000044eb000804e0000a0032002b
:104cfc00000e8000c000b300000e880002002000ef
:104d0c00032824001e00be0096ef07006cee07007f
:104d1c0000007800200e88004f0478000080fa0014
:104d2c00000006001000fa00889fbe00ee0047004d
:104d3c00800878000000eb00000f780011002000c4
:104d4c000e80e800010878006000b800640147009c
:104d5c000089be006000b800680147000089be00f1
:104d6c00110020006c004700010878009e007800bc
:104d7c006e00470010007800010040009040780061
:104d8c00d0c2b30080cf500005003a008080eb0009
:104d9c006c004700010878001e0fe8002600370061
:104dac009e0078006e004700100078000100400063
:104dbc0090407800b0c2b30080cf50001d003a0084
:104dcc00110020006c004700010878001e0fe8005d
:104ddc001900370064004700020020000312240071
:104dec001000be003ef00700640147000089be00c1
:104dfc009e0078006e004700100078000100400013
:104e0c00104078000000fb000003b100cf80de00f2
:104e1c004cee0700640247000001be001400be0007
:104e2c006bee0700640147000089be001e0fe8000e
:104e3c0001003700000000009e0078006e00470063
:104e4c00100078000100400090407800e0c2b300f0
:104e5c0080cf50000f0032009e0078006e0047009b
:104e6c00100078000100400090407800c0c2b300f0
:104e7c0080cf5000070032009e0078006e00470083
:104e8c001000780001004000104078000004e000a1
:104e9c00d0ff3a009e0078006e00470010007800aa
:104eac000100400090407800e0c2b30080cf500079
:104ebc0038003a001e0fe8001d003700680047005c
:104ecc0002002000031224001000be0004f00700b2
:104edc00680147000089be009e0078006e00470004
:104eec001000780001004000104078000000fb002a
:104efc000003b100cf80de0012ee0700680247000d
:104f0c000001be001400be0031ee0700680147002e
:104f1c000089be001e0fe8000e80e800100078002b
:104f2c006a00b900800078000e80e8000108780063
:104f3c009e0078006e0047001000780001004000d1
:104f4c0090407800c0c2b30080cf50000700320000
:104f5c009e0078006e0047001000780001004000b1
:104f6c00104078000004e000d4ff3a000e80e80006
:104f7c0010007800cf80de00f2ed070068024700d9
:104f8c000001be001400be00f6ee070068014700e9
:104f9c000089be006c00470010007800cf80de0056
:104fac00e8ed07000004be00e8004700640047007d
:104fbc001101be001000be0005ee07000001be008e
:104fcc000800be00c6ef07004f04be000080fa00c8
:104fdc00000006000400fa00000f78000e80e800c4
:104fec0001087800050037000e80e80010007800fa
:104ffc008000e8000e80e800010878000e80e800d0
:10500c00100078001e00400090407800c0c2b30031
:10501c0080cf5000060032000e80e80010007800af
:10502c001e004000104078000004e000eeff3a0043
:10503c000e80e800100078001e00400090407800c0
:10504c00c0c2b30080cf500005003a000e80e800cb
:10505c00100078008000e8000e80e800010878005d
:10506c000e80e800100078000080fa0000000600b6
:10507c000600fa00881f78000e81e800000978000d
:10508c0064004700010878000000eb00000f780076
:10509c000e80e8001000780022ff07006401470032
:1050ac00120178000089be009e0078000e80e80096
:1050bc0010007800c7ff0700000f78009e007800f2
:1050cc000e80e800100078000100400015ff07007a
:1050dc006401470012017800640141000089be00a0
:1050ec0064004700100078001000be0018c0b30028
:1050fc00a2702d00f31124006fed07000000e000fa
:10510c0001003c000044eb000804e0000600320003
:10511c006400470010017800a0702d00f1112400ec
:10512c000089be00110037006400470010007800b1
:10513c001000be0018c0b300a2702d00f3112c009b
:10514c005bed07000000e000010035000044eb00bf
:10515c000804e000050032006400470010017800ec
:10516c00a0702d00f1112c000089be0064004700d6
:10517c0010007800640040001000be0018c0b3009e
:10518c00a2702d00f31124004bed07000000e0008d
:10519c0001003c000044eb000804e0000700320072
:1051ac006400470010017800a0702d00f11124005c
:1051bc00640141000089be00130037006400470001
:1051cc0010007800640040001000be0018c0b3004e
:1051dc00a2702d00f3112c0035ed07000000e0004b
:1051ec00010035000044eb000804e000060032002a
:1051fc006400470010017800a0702d00f1112c0004
:10520c00640141000089be004f0478000080fa0060
:10521c00000006000600fa00889fbe007046800061
:10522c00e20f5000a300320070468000e10f5000e6
:10523c0002003a00ce28ef00ca22a90086a0a900dd
:10524c001421ef008ea0a800c180200080852000d2
:10525c0087ff0700884080009940800060408000f4
:10526c00714080000200200003e823001cef0700bf
:10527c000001be000800be0055ed0700d2cc2c008a
:10528c00c3e4230037ee0700d2cc2c00831124009a
:10529c0013ef07000042880011428800884080000c
:1052ac009940800060408000714080000200200026
:1052bc0003e823000aef07000001be000800be004f
:1052cc003aed0700d2cc2c00c3e4230025ee0700f6
:1052dc00d2cc2c008311240001ef0700404288003f
:1052ec00514288000000eb00000f7800510037009d
:1052fc001e007800c300dd00008420000080400008
:10530c001000be0018c0b3000200200083242c0043
:10531c00e9ec07000000e00001003d000044eb0058
:10532c000804e000190032001e007800c300dd0004
:10533c0000842000008040001000be0018c0b300a4
:10534c000200200083242400d9ec07000000e000b8
:10535c00010034000044eb000804e0000b003200b4
:10536c001e007800c300dd00008420000080400097
:10537c001000be001e017800c311dd004284200025
:10538c00028141000089be00290037001e00780010
:10539c00c300dd0000842000008040001000be002f
:1053ac0018c0b3000200200083242c00c0ec0700be
:1053bc000000e000010035000044eb000804e000b0
:1053cc000e0032001e007800c300dd004084200077
:1053dc00008140000000200081242c000089be00c8
:1053ec001e00780000004000000047000080e8002c
:1053fc0011002000010878000d0037001e00780015
:10540c00c300dd004084200000814000000020002b
:10541c00812424000089be001e007800000040009a
:10542c00000047000080e80011002000010878000f
:10543c001e0fe8001e007800e10f5000acff340096
:10544c000e80e800100078000000e00004003a0034
:10545c0064004700100078000000e00008003200f3
:10546c00504680000000e00005003a00b04180008a
:10547c00a041880010002000504688000d00370025
:10548c000e80e800100078000000e00009003a00ef
:10549c0064004700100078000000e00005003a00ae
:1054ac00504680000000e000020032003428ef007b
:1054bc00ca28ef004f04be000080fa00000006006e
:1054cc000e00fa0070468000e20f50000c003a000b
:1054dc00ce28ef0086a0a9001421ef008ea0a80012
:1054ec00ca22a900e2002000e1542a000e00780034
:1054fc008bf00700a1a822000e007800010001002b
:10550c000080fa00000006000600fa00881f7800f0
:10551c00e4004700800878008000eb000e80e80073
:10552c00010878000000eb00000f78002d00370018
:10553c008f20a900304080008000e800f003280094
:10554c00008060000000e00004003d000000e90065
:10555c0001fc2f00008070000000e800414080003a
:10556c000100680000f0a7000000ea000000e9005c
:10557c00cf00de000e80e800010878008f20a80024
:10558c000e80e800100078000000e0001c003a00db
:10559c005140800030408000008040001e017800a7
:1055ac00e400470091007800828040009140780030
:1055bc0001487800304080008000e800f0032800ab
:1055cc00008060000000e00004003d000000e900e5
:1055dc0001fc2f00008070000000e80030408800c3
:1055ec001e0fe8001e0478006400470010007800cd
:1055fc0052f00700800f5400cdff39000100370036
:10560c00000000008f20a9001500370041408000e9
:10561c0030408000808f50001700320051408000d5
:10562c004040800000804000104078000000fb00eb
:10563c00d0108800404080008000e800f003280073
:10564c00008060000000e00004003d000000e90064
:10565c0001fc2f00008070000000e8004040880032
:10566c00c110800000202000008060000000e000dd
:10567c00e6ff320001003700000000008f20a80078
:10568c004f0478000080fa00000006000000fa00c9
:10569c006000b80080408800914088006000b8002d
:1056ac0060408800714088006000b800204288008b
:1056bc00314288006000b800604288007142880066
:1056cc00200e80008000eb0021ec0700fceb0700b3
:1056dc0000007800c00e8800200e80008000eb00d7
:1056ec001bec0700f6eb070000007800d00e8800da
:1056fc00ca28ef000080fa00000006000200fa0041
:10570c00889fbe008f00a900200037008f00a800e2
:10571c00214080001040800000804000104f780035
:10572c009e40780000852000f8050700e10f50002e
:10573c000d003a00c1552a002085200026f70700ed
