:020000040000fa
:080000000001040000000000f3
:020000040000fa
:040008001e020000d4
:020000040000fa
:04000c001e020000d0
:020000040000fa
:040010001e020000cc
:020000040000fa
:040014001e020000c8
:020000040000fa
:040018001e020000c4
:020000040000fa
:04001c001e020000c0
:020000040000fa
:040020001e020000bc
:020000040000fa
:040024001e020000b8
:020000040000fa
:04002800d8010000fb
:020000040000fa
:04002c001e020000b0
:020000040000fa
:040030001e020000ac
:020000040000fa
:040034001e020000a8
:020000040000fa
:040038001e020000a4
:020000040000fa
:04003c001e020000a0
:020000040000fa
:04004000f2010000c9
:020000040000fa
:040044001e02000098
:020000040000fa
:040048001e02000094
:020000040000fa
:04004c001e02000090
:020000040000fa
:040050001e0200008c
:020000040000fa
:040054001e02000088
:020000040000fa
:040058001e02000084
:020000040000fa
:04005c001e02000080
:020000040000fa
:040060001e0200007c
:020000040000fa
:040064001e02000078
:020000040000fa
:040068001e02000074
:020000040000fa
:04006c001e02000070
:020000040000fa
:040070001e0200006c
:020000040000fa
:040074001e02000068
:020000040000fa
:040078001e02000064
:020000040000fa
:04007c001e02000060
:020000040000fa
:040080001e0200005c
:020000040000fa
:040084001e02000058
:020000040000fa
:040088001e02000054
:020000040000fa
:04008c001e02000050
:020000040000fa
:040090001e0200004c
:020000040000fa
:040094001e02000048
:020000040000fa
:040098001e02000044
:020000040000fa
:04009c001e02000040
:020000040000fa
:0400a0001e0200003c
:020000040000fa
:0400a4001e02000038
:020000040000fa
:0400a8001e02000034
:020000040000fa
:0400ac001e02000030
:020000040000fa
:0400b0001e0200002c
:020000040000fa
:0400b4001e02000028
:020000040000fa
:0400b8001e02000024
:020000040000fa
:0400bc001e02000020
:020000040000fa
:0400c0001e0200001c
:020000040000fa
:0400c4001e02000018
:020000040000fa
:0400c8001e02000014
:020000040000fa
:0400cc001e02000010
:020000040000fa
:0400d0001e0200000c
:020000040000fa
:0400d4001e02000008
:020000040000fa
:0400d8001e02000004
:020000040000fa
:040108001e020000d3
:020000040000fa
:04010c001e020000cf
:020000040000fa
:040110001e020000cb
:020000040000fa
:040114001e020000c7
:020000040000fa
:040118001e020000c3
:020000040000fa
:04011c001e020000bf
:020000040000fa
:040120001e020000bb
:020000040000fa
:040124001e020000b7
:020000040000fa
:04012800d8010000fa
:020000040000fa
:04012c001e020000af
:020000040000fa
:040130001e020000ab
:020000040000fa
:040134001e020000a7
:020000040000fa
:040138001e020000a3
:020000040000fa
:04013c001e0200009f
:020000040000fa
:04014000f2010000c8
:020000040000fa
:040144001e02000097
:020000040000fa
:040148001e02000093
:020000040000fa
:04014c001e0200008f
:020000040000fa
:040150001e0200008b
:020000040000fa
:040154001e02000087
:020000040000fa
:040158001e02000083
:020000040000fa
:04015c001e0200007f
:020000040000fa
:040160001e0200007b
:020000040000fa
:040164001e02000077
:020000040000fa
:040168001e02000073
:020000040000fa
:04016c001e0200006f
:020000040000fa
:040170001e0200006b
:020000040000fa
:040174001e02000067
:020000040000fa
:040178001e02000063
:020000040000fa
:04017c001e0200005f
:020000040000fa
:040180001e0200005b
:020000040000fa
:040184001e02000057
:020000040000fa
:040188001e02000053
:020000040000fa
:04018c001e0200004f
:020000040000fa
:040190001e0200004b
:020000040000fa
:040194001e02000047
:020000040000fa
:040198001e02000043
:020000040000fa
:04019c001e0200003f
:020000040000fa
:0401a0001e0200003b
:020000040000fa
:0401a4001e02000037
:020000040000fa
:0401a8001e02000033
:020000040000fa
:0401ac001e0200002f
:020000040000fa
:0401b0001e0200002b
:020000040000fa
:0401b4001e02000027
:020000040000fa
:0401b8001e02000023
:020000040000fa
:0401bc001e0200001f
:020000040000fa
:0401c0001e0200001b
:020000040000fa
:0401c4001e02000017
:020000040000fa
:0401c8001e02000013
:020000040000fa
:0401cc001e0200000f
:020000040000fa
:0401d0001e0200000b
:020000040000fa
:0401d4001e02000007
:020000040000fa
:0401d8001e02000003
:020000040000fa
:100200000f8320000eff20000e0188000000000078
:10021000000020000000e000020032000001200089
:100220002002880014000700860007000000e0009c
:1002300003003a00c017210001002000020037002f
:100240000000200001002000810f7000010032003a
:1002500014000700000020000000e000020032004f
:100260000000020000000000720f02000000000009
:100270000040da000000fe004440a9000002200017
:100280000000e0000300320000002000a001880010
:100290004440a800000006008a1f78008b1f7800e9
:1002a0000000060091018800800478000000eb0047
:1002b0001a003700e284440032a0b4009905ba0065
:1002c000e284440032a0b4009906ba00e2844400fb
:1002d00032a0b4000006eb00476fde00fd07b2005d
:1002e000636ce10003003a00ebff07000000eb0045
:1002f0000a003700606ce10004003a00005deb008a
:100300008b05e900fdff3e00040037006168e10055
:10031000010032000086eb000b00070019c7ba008d
:100320001905ba000e04e00003003a000a00e000dc
:10033000e0ff3a0000000600fe07b2009e018800c0
:100340008a047800f5ff3700395dba008b05e900b3
:100350000c003200295dba008b05e900080032006c
:100360000c00e00003003a00e284440032a0b40034
:10037000f5ff370019ddba008b05e900faff3a00f6
:100380008904e800e184440032a0b40000000600c3
:10039000000000000000000000000000000000005d
:1003a000000000000000000000000000000000004d
:1003b0003400f800881f780008002000a801880099
:1003c0004f0478000000fa008400a90084c0a9004e
:1003d0000621ef008cc0a8000080fa003400f9006c
:1003e00000400600809fbe003400f800000020009e
:1003f000a00188000000fa0084c0a900d116800086
:1004000000102000008060000000e00006003200c4
:100410006041800000f0a7000000ea000000e90051
:100420004f00de00604188008cc0a9000080fa0007
:100430003400f9004f00be00004006000040da0022
:100440000000fe000000050014002000bb02370081
:100450000001be003d0007000470a70003f0a100ea
:100460006509b100160032000d0035006828e10072
:1004700006003500f0ff2f00f1ff27000300e00029
:1004800013003b00010028000000050000004000b0
:10049000818048008502e900fcff3a00080037002f
:1004a000f88f420002003c008000eb0000000500d5
:1004b0008100d1000080d3008502e800fcff3a00f3
:1004c0000300e00002003b0060001000e080180024
:1004d000000006000001be001c0007000470a70019
:1004e00003f0a10003f8a30013003a006509b1006e
:1004f00010003200090035006928e10002003500d3
:100500000100280000000500000040008180480034
:100510008502e900fcff3a0000000600f88f420067
:10052000050035008100d1000080d3008502e8007d
:10053000fcff3a00000006008000eb000000050010
:100540004f89de008201780097023700c70ade007b
:10055000f107b200f50fb20008003200e1cf42000f
:10056000020032000170a00024000500810f70001d
:10057000010032000408050044000500810f7000ee
:1005800002003a00140005008502e9000000400066
:1005900081c04800fcff3b000170a0002400050062
:1005a000889fbe008a9fbe008c9fbe001b0020005b
:1005b0000202be00058668000600280006066600e6
:1005c0004709de00f20fb200820032000243e80069
:1005d00080003200c729de00f30fb2007d00320038
:1005e0000343e8007b003200f107b2000170a00075
:1005f000f507b2000570a000c708dd004903de0062
:10060000868070004700dd00c72add004923de0038
:10061000868272004722dd0003055100040350006a
:1006200085835800030031000000400081804800ad
:100630000a05e9008c1f78008a9fbe000400500064
:10064000858058000402420085824a000000400074
:10065000818048000005eb000004be006033b80054
:100660000406be000d48e1005600310011000900eb
:100670004dccd8000c01b8000d02b80084814100b7
:1006800060824a008283530003045c0084845c001f
:1006900060055d000a00e00025003a008005780052
:1006a0000d40e10049003100880078000700780023
:1006b000110009004d88d8000c01b8000d02b800e7
:1006c0008481410060824a006003110083835b00e3
:1006d00004045c00e0845c000900e00021003a00b2
:1006e0004f01be000300e0002b003200e301600078
:1006f000070673008c8171000100320064007000f5
:100700004200de004e5edd000c007000c258de00cc
:1007100001e0a00083010700cf0178008180710013
:100720004f06be004f05be004f04be00000006008d
:100730008c8343000d044c00e0844c0060054d00a8
:100740000000e9000a00e000d4ff32008c8343007f
:100750000d044c00e0844c0060054d000000e900f1
:10076000ceff37000c0343008d834b0060044c0028
:10077000e0844c000000e9000900e000d8ff3200ee
:100780000c0343008d834b0060044c00e0844c005c
:100790000000e900d2ff37004200de004e5edd00bf
:1007a0000c007000c258de0001e0a000cf0178000c
:1007b0000300e000daff320060001000e080180063
:1007c000d7ff3700f0ff2f00aaff3700f0ff2f0000
:1007d000b9ff37000404be002f0107008706780028
:1007e0000004fd008104fd002b0107000783660063
:1007f0000678a300030032000960a7000800be00cd
:100800002c0037000d78a300020032000800be0063
:10081000280037000778a30026003a0001f0a10065
:1008200009f0a1000668a30003003200f1ff2700d1
:10083000f0ff2f00baff37000d68a300030032005d
:100840000800be008c807000b5ff37000768a30069
:1008500007003a000648a30003003200f1ff27001a
:10086000f0ff2f00aeff37000d48a3000300320059
:100870006000b8008c807000a9ff37000748a30013
:100880000400320001f82700000020008c80700076
:10089000a3ff3700760107000004fd008104fd007e
:1008a00002057800720107000802be008a01780084
:1008b00059ff37000160a000120220007241880039
:1008c00097ff37000100e000120032000500e00051
:1008d00010003200889fbe008a9fbe008c9fbe0021
:1008e0000006eb0001f8a3000300320060001000d6
:1008f000e08018000cf0a00005f8a300030032000f
:1009000060021200e0821a000cf0a2008005eb00e9
:1009100041ff37006000b800020005000383680053
:100920000700280007036300470ade000480a100d7
:10093000c71ade000580a100f70f20000720e100a4
:10094000420032000728e10040003200889fbe00cc
:100950008a9fbe008c1f7800f107b200f307b20037
:100960000400e000640032000170a0000500e00017
:10097000680032000370a00085054200eb07b1005b
:100980000204b8000302b8008484440060854a0071
:10099000020ab800848444000a854a00030ab800a9
:1009a00004054500040033000804d0008984d20007
:1009b0000a85d2008b05e9006158e1003d00350051
:1009c00002102000090161000308200089816100f4
:1009d000f70720008783640008867300c84cde0098
:1009e000c853dd00878474004855de000300e00032
:1009f0000600320082037600040032008904e80019
:100a000060054d000a88a3000c003a00f70f200093
:100a10000758e10044003d000a70a100c75ddd00f9
:100a20000a8575008a007300090078004f06780077
:100a30004f05be004f04be00000006000a05d100ad
:100a40008984d3008b05e800f0ff3700881f780009
:100a50000604780090000700070278000001fd00fe
:100a60008101fd008c000700870278008503720079
:100a70000778a300050032000001fd008101fd00a0
:100a80009f0007004f0478000000060085037200f5
:100a90000748a30003003200f0ff2f00f1ff2700fa
:100aa000f8ff37000000200001f827008880700060
:100ab000f4ff3700880178004848dd00808171002c
:100ac0004848de00c850dd0001007000c850de005c
:100ad000060478000b01780016000700888070007b
:100ae000d2ff37000500e0000500320017002000ab
:100af0003a0007009dff370081037000f9ff3a00bc
:100b0000860078004f0678004f05be004f04be00f7
:100b10000000050083037100f9ff32002700200068
:100b20002e00070094ff370001f827008680700030
:100b3000f4ff37000100e0002600320061011100df
:100b40007810e10023003c006022b8007010e10042
:100b50000400350080027800010078008000eb007e
:100b6000700151000200e000090034007003110020
:100b7000062add00822ade008603dd0087827200fd
:100b80000200de00860bdd00070070008208de0038
:100b900084817100f4ff2700048262008481710067
:100ba00004002800848262006102600005f0a60053
:100bb0000000060004827100070032000000e80017
:100bc000e0804800000006000002be006000b8009f
:100bd000efff37006000b80000000600889fbe00ed
:100be0000004eb006138e10016003a000100e0006b
:100bf00008003a00c800de004800dd008800200040
:100c00000100e00003003a00c800de004800dd00fb
:100c1000680444008184cf00e98454000600340055
:100c20008908dd00f08314008703de0087807000f0
:100c30000900dd0009044400610214004f04be00f5
:100c4000000006000300e00008003a00c811de00c2
:100c50004811dd00880020000300e00003003a0096
:100c6000c811de004811dd00680444008384cf0011
:100c7000e9845400060034008919dd00f083140073
:100c80008713de00878171000911dd00090444002b
:100c9000e1021400e9ff37002700200001f0a7005f
:100ca00017002000470bde00f60fb20004003200f0
:100cb0000643e8000a0032004702b30000000600c5
:100cc00001037800f607b2000603700002003a0044
:100cd0000703b300000006008702b300000006000f
:100ce00001037800f607b20006037000020032002c
:100cf0000770a000000006000760a00000000600ca
:100d00000478a300040032000578a3000300320039
:100d10000168a30001003a000200be000160a000cb
:100d20000000060081017000270032008002eb0005
:100d300001f8a3000300320060001000e0801800fa
:100d400015002000f40720000202420020003400b9
:100d5000f7032000870360000604200000036300ff
:100d600002082000000161004700de00c909dd0023
:100d700000807100c708de000600e00008003200b5
:100d800087037100060032001000b0000180b0003f
:100d90000188a30002003200c108de000402e8005e
:100da000f107b200f30f20000320e10003003d0033
:100db0004722dd00810072002900370001f827007a
:100dc0000000eb00260037006000b80000000600bd
:100dd000680212007f20e100020034006000b800c9
:100de0001f0037006011b8007020e10004003500da
:100df00080017800010078008000eb007002520052
:100e00000400e00009003400f00312000719dd00bf
:100e10008419de000703dd00868171000400de0016
:100e2000070bdd00060070008408de00f7ff2700d6
:100e300083836300870371000600280003036300b7
:100e4000070032000700e00003003a006101600083
:100e500002817300020032001000b0000180b00077
:100e60000500a6000000060001f0a000000006003a
:100e70004f0ade004709de00f107b200f20fb200b0
:100e80000b003200f207b1000170a000c708dd00be
:100e9000c901de00838070004700dd000400a60069
:100ea0000000060060001000e0801800000006004e
:100eb000810f700001003a00000006008182cf001f
:100ec0000500e00010003e008082cf00ee8242006c
:100ed0007028e1000400390007003e00800078001f
:100ee0000000eb000e003700708312008600de0069
:100ef0000500dd000a003700708352008600dd0027
:100f00000000eb0006003700e28252008508dd0099
:100f1000708312000603de00868070000500dd008d
:100f20007507b0000501ea000400a60000000600f5
:100f300060001000e080180000000600889fbe00de
:100f40008a9fbe00841f78007c0007004f00780055
:100f500011003300f0ff2f00838f6c0006003b0070
:100f6000040565000a00a7000800370009f0a60084
:100f70001000200008003700820f5400838f5c00af
:100f8000030039001000200001003e000000200096
:100f900009f0a7000000ea004f05be004f04be00a4
:100fa0000000e00000000600881f780003047800bd
:100fb0000300e00007003d0060001000e080180022
:100fc00060011900e081190002003b0001f02d00d2
:100fd000030037000400070008f0a70001f0a0009c
:100fe0004f04780000000600889fbe008a9fbe0064
:100ff0000082700004027100048271002600320039
:101000000004be000200be006011b8006b092000a1
:10101000950220000182cf000a0039000541b1008d
:101020000082cf00070039000541b1000982cf00de
:10103000040039000541b1000882cf0001003900e9
:101040000541b10005425200120032000a003b0087
:1010500082817100610164008100d1000080d300b1
:101060008984d3000884d3008b05e8000442e8009b
:10107000f7ff3a00070037000804440089844c0059
:1010800000004800818048008b05e9000442e90027
:10109000f9ff3a00030007004f05be004f04be00f1
:1010a0000000060081002000618055000b003d001b
:1010b0000b00200061fe2f000100e1001d00340044
:1010c00082817100610164008904d1000884d30029
:1010d0000000e800faff3a0071002000610064009f
:1010e0000300700002006000090032006104440047
:1010f000e0844c000988a500050032008b05e8005b
:101100006808e10002003a008904d1000884d30095
:10111000f20f20000258e10005003d00c75ddd0030
:10112000f907b20089807500080078000000060009
:101130000bf827008b007800000005000004be00bb
:1011400002fd07000003be000405be000200be0051
:10115000fefc0700844f7500000006008000780048
:10116000040037003104e00002003a0000005100a2
:1011700000000600010178000108a300f9ff3a0011
:101180008101780031017800f4ef2f000202420063
:101190000281ea00020162000408280004016100e3
:1011a000f7ff320083007800010178003104e0008d
:0c11b000fdff3a000000510000000600a6
:020000040000fa
:1011bc00416d000079200000426500006c6c00005d
:1011cc0069740000746f00002073000065690000f2
:1011dc0020620000656c00006c69000073730000f5
:1011ec00696d000061000000563d00002000000009
:020000040000fa
:1011fc000c00fa00881f780068014700000978008d
:10120c006a004700010878006a0047001000780067
:10121c00cf80de00c7fc070002002000a34724009b
:10122c00dcfc070002002000139e2400b8fd070020
:10123c00008fbe0002f02f00f37724001e00be00ca
:10124c00d4fc0700640147000089be006800470019
:10125c0010007800e30f5000c8003200e30f50007c
:10126c0005003c00e10f500008003200e20f500076
:10127c0064003200db013700e40f50001d01320026
:10128c00e50f500079013200d60137000021ef0044
:10129c008460a90018c0b30064004700020020005d
:1012ac0003f823001000be0064fc07000000e000ff
:1012bc00010035000044eb000804e0000900320096
:1012cc0021088000f0fc2f000080600020088800be
:1012dc001e00be005bfc07000000780010088800b0
:1012ec004600370018c0b30064004700020020001d
:1012fc00031024001000be0050fc07000000e000aa
:10130c00010035000044eb000804e0000d00320041
:10131c0021088000f0fc2f00008060000040a0003d
:10132c002008880002002000031024001e00be00cc
:10133c0098fc070043fc07000000780010088800a8
:10134c002e00370018c0b3006400470002002000d4
:10135c00032824001000be0038fc07000000e00049
:10136c00010035000044eb000804e0000d003200e1
:10137c0021088000f0fc2f00008060000050a000cd
:10138c002008880002002000032824001e00be0054
:10139c0080fc07002bfc0700000078001008880078
:1013ac001600370018c0b30064004700020020008c
:1013bc00033824001000be0020fc07000000e000f1
:1013cc00010035000044eb000804e0000b00320083
:1013dc002108800000032000010070002008880014
:1013ec0002002000033824001e00be0069fc070028
:1013fc0014fc0700000078001008880005e1a80024
:10140c00780137000621ef0084c0a90018c0b30092
:10141c00640047000200200003f823001000be0007
:10142c0006fc07000000e000010035000044eb0062
:10143c000804e0000900320081088000f0fc2f0055
:10144c0000806000800888001e00be00fdfb0700c5
:10145c0000007800600888004600370018c0b30010
:10146c006400470002002000031024001000be009e
:10147c00f2fb07000000e000010035000044eb0027
:10148c000804e0000d00320081088000f0fc2f0001
:10149c00008060000040a00080088800020020004e
:1014ac00031024001e00be003afc0700e5fb0700f9
:1014bc0000007800600888002e00370018c0b300c8
:1014cc006400470002002000032824001000be0026
:1014dc00dafb07000000e000010035000044eb00df
:1014ec000804e0000d00320081088000f0fc2f00a1
:1014fc00008060000050a0008008880002002000de
:10150c00032824001e00be0022fc0700cdfb0700b0
:10151c0000007800600888001600370018c0b3007f
:10152c006400470002002000033824001000be00b5
:10153c00c2fb07000000e000010035000044eb0096
:10154c000804e0000b00320081088000000320003a
:10155c00010070008008880002002000033824007d
:10156c001e00be000bfc0700b6fb07000000780055
:10157c006008880011e1a8001a0137000a21ef0069
:10158c0084e0a90018c0b3006400470002002000ea
:10159c0003f823001000be00a8fb07000000e000c9
:1015ac00010035000044eb000804e00009003200a3
:1015bc0091088000f0fc2f000080600090088800eb
:1015cc001e00be009ffb070000007800700888001a
:1015dc004600370018c0b30064004700020020002a
:1015ec00031024001000be0094fb07000000e00074
:1015fc00010035000044eb000804e0000d0032004f
:10160c0091088000f0fc2f00008060000040a000da
:10161c009008880002002000031024001e00be0069
:10162c00dcfb070087fb07000000780070088800cf
:10163c002e00370018c0b3006400470002002000e1
:10164c00032824001000be007cfb07000000e00013
:10165c00010035000044eb000804e0000d003200ee
:10166c0091088000f0fc2f00008060000050a0006a
:10167c009008880002002000032824001e00be00f1
:10168c00c4fb07006ffb070000007800700888009f
:10169c001600370018c0b300640047000200200099
:1016ac00033824001000be0064fb07000000e000bb
:1016bc00010035000044eb000804e0000b00320090
:1016cc009108800000032000010070009008880041
:1016dc0002002000033824001e00be00adfb0700f2
:1016ec0058fb0700000078007008880013e1a80080
:1016fc00bc0037001421ef0086a0a90018c0b3006d
:10170c00640047000200200003f823001000be0014
:10171c004afb07000000e000010035000044eb002c
:10172c000804e00009003200f1088000f0fc2f00f2
:10173c0000806000f00888001e00be0041fb07001e
:10174c0000007800d00888004600370018c0b300ad
:10175c006400470002002000031024001000be00ab
:10176c0036fb07000000e000010035000044eb00f0
:10177c000804e0000d003200f1088000f0fc2f009e
:10178c00008060000040a000f008880002002000eb
:10179c00031024001e00be007efb070029fb07007f
:1017ac0000007800d00888002e00370018c0b30065
:1017bc006400470002002000032824001000be0033
:1017cc001efb07000000e000010035000044eb00a8
:1017dc000804e0000d003200f1088000f0fc2f003e
:1017ec00008060000050a000f0088800020020007b
:1017fc00032824001e00be0066fb070011fb070037
:10180c0000007800d00888001600370018c0b3001c
:10181c006400470002002000033824001000be00c2
:10182c0006fb07000000e000010035000044eb005f
:10183c000804e0000b003200f108800000032000d7
:10184c0001007000f008880002002000033824001a
:10185c001e00be004ffb0700fafa070000007800dc
:10186c00d00888001fe1a8005e0037001821ef00a7
:10187c0086c0a90018c0b300640047000200200015
:10188c0003f823001000be00ecfa07000000e00093
:10189c00010035000044eb000804e00009003200b0
:1018ac0001098000f0fc2f00008060000009880016
:1018bc001e00be00e3fa070000007800e008880074
:1018cc004600370018c0b300640047000200200037
:1018dc00031024001000be00d8fa07000000e0003e
:1018ec00010035000044eb000804e0000d0032005c
:1018fc0001098000f0fc2f00008060000040a00077
:10190c000009880002002000031024001e00be0005
:10191c0020fb0700cbfa070000007800e0088800e5
:10192c002e00370018c0b3006400470002002000ee
:10193c00032824001000be00c0fa07000000e000dd
:10194c00010035000044eb000804e0000d003200fb
:10195c0001098000f0fc2f00008060000050a00006
:10196c000009880002002000032824001e00be008d
:10197c0008fb0700b3fa070000007800e0088800b5
:10198c001600370018c0b3006400470002002000a6
:10199c00033824001000be00a8fa07000000e00085
:1019ac00010035000044eb000804e0000b0032009d
:1019bc00010980000003200001007000000988006c
:1019cc0002002000033824001e00be00f1fa0700bc
:1019dc009cfa070000007800e008880021e1a800cc
:1019ec00000000004f0478000080fa0000000600a0
:1019fc000200fa00000f78001e007800e30f500080
:101a0c001b003200e30f500005003c00e10f5000ba
:101a1c0008003200e20f50000d0032002c0037009d
:101a2c00e40f50001a003200e50f50002000320085
:101a3c0027003700000000002004800068006000d0
:101a4c000000e000fcff32008460a9002000370099
:101a5c0000000000210480000004200000806000d1
:101a6c000000e000fbff320084c0a9001800370022
:101a7c0000000000210480000008200000806000ad
:101a8c000000e000fbff320084e0a90010003700ea
:101a9c000000000031048000000220000080600083
:101aac000000e000fbff320086a0a9000800370010
:101abc000000000031048000000420000080600061
:101acc000000e000fbff320086c0a900000000000f
:101adc000080fa00000006000400fa00000f7800f5
:101aec000e80e800010878000e80e8009000780075
:101afc001e007800befd07001e007800bcff07002a
:101b0c001e007800e30f500010003200e30f50006d
:101b1c0005003c00e10f500008003200e20f5000bd
:101b2c00080032000f003700e40f500009003200ab
:101b3c00e50f5000090032000a00370005e1a9004a
:101b4c000800370011e1a9000600370013e1a900d5
:101b5c00040037001fe1a9000200370021e1a900b1
:101b6c00000000000080fa00000006000000fa00ef
:101b7c00008220006600400010007800e10f500049
:101b8c0047003a00008220000080e8001000780036
:101b9c00800078001000200038010700008220002f
:101bac009000780040418000808f500019003c006c
:101bbc000000000000118000620060000000e000e6
:101bcc00fcff3a0051418000008220001000780098
:101bdc0000804000104078000000fb0020118800bd
:101bec0000822000100078008000e80000822000b5
:101bfc0001087800008220000080e80010007800c6
:101c0c008000e800008220000080e80001087800d5
:101c1c001a00370000000000001180006200600014
:101c2c000000e000fcff3a000002200020118800b8
:101c3c0000822000100078008000e8004041800005
:101c4c006f00400000017800110009008200d800ec
:101c5c008000fd00800078000082200001087800e0
:101c6c00008220000080e800100078008000e8006e
:101c7c00008220000080e80001087800008220002b
:101c8c000080e80010007800ef0f500004003400d2
:101c9c00008220008000eb00660040000108780004
:101cac000080fa00000006000000fa00008220000c
:101cbc008000eb000080e8000108780060418000a3
:101ccc00e10f50000e003a0000822000640040003a
:101cdc00100078008000e800404180006f00400058
:101cec0000017800110009008200d8008000fd007e
:101cfc008000780000822000640040000108780019
:101d0c0000822000640040009000780000822000d7
:101d1c0001087800008220001100200066004000bd
:101d2c00010878000080fa00000006000000fa00ac
:101d3c00501680006100600000f0a7000000ea006f
:101d4c000000e9004f00de00004078000080fb003e
:101d5c0061006000511680000100a10001007000bc
:101d6c00501688000080fa00000006000800fa00f7
:101d7c00a022a90000000000001580006100600096
:101d8c000000e000fcff320000148000000f78001f
:101d9c001e0078006500b90000007800cf80de00de
:101dac00e4f9070002002c00f3472400f9f90700be
:101dbc000e81e8000089be000e80e8001000be0015
:101dcc00c1f907006601470000497800f2002000c5
:101ddc003100200020002000c200070066004700f0
:101dec00104178003100200020002000f80007008e
:101dfc0066004700104078008080fb0020fe2f001a
:101e0c000088b90000007800800cb00050408800b9
:101e1c00a022a8000080fa00000006000200fa00d0
:101e2c000000eb00000f7800260037001e00780041
:101e3c00c300dd000080200000804000100078000e
:101e4c000001e8001e007800c300dd0000802000c7
:101e5c0000804000020878001e007800c300dd00fe
:101e6c000080200000804000100178001e007800e7
:101e7c004300dd008080e8000080200000804000ee
:101e8c0010007800800f51000d0035001e00780006
:101e9c004300dd00e6004000008020000080400090
:101eac0010007800000001001e007800c300dd0067
:101ebc0000802000008040008000eb0001087800ca
:101ecc001e0fe8001e007800e30f5000d7ff34000f
:101edc000080fa00000006000200fa00813e20009b
:101eec0010002000fcfe070022a2a8002342a9003b
:101efc00101180003000b300101188001111800007
:101f0c0030fe2f00008060008001b30010118800ab
:101f1c0021e2a800c602a900d902a8008c00a800e2
:101f2c008400a9008cc0a90084c0a90021158000e0
:101f3c0000fc2f00008060000030a00020158800fd
:101f4c00a042a90001158000f0f12f000080600074
:101f5c000015880011158000f0cf2f000080600064
:101f6c000080a000101588003115800000ff2f00a4
:101f7c00008060000010a000301588000080eb008d
:101f8c0040158800a842a900a1e2a8000028ef0093
:101f9c001000200010408800c0db2000304088007a
:101fac000828ef002003200050408800a0e5200006
:101fbc00704088001028ef004006200090408800f8
:101fcc00c0e92000b04088001828ef0090012000e4
:101fdc00d0408800c0eb2000f04088000082200038
:101fec008000eb0001087800008220008000eb00ec
:101ffc000080e80001087800008220008000eb00df
:10200c0064004000010878000082200011002000cc
:10201c006600400001087800504180004cfc07002d
:10202c000000e90040418800a08f2800000f7800d4
:10203c008000eb0020002000100007001e0078003c
:10204c00460007008000eb00100020000b0007008a
:10205c00210320002000200065fc07005100200017
:10206c001000200062fc0700a022a8006bff0700f4
:10207c00100020005efe0700fcff37000400fa0091
:10208c00000f78000e80e8000108780000000000c6
:10209c0000118000620060000000e000fcff3a00cc
:1020ac001e007800e10f500005003a000e80e80099
:1020bc00100078000008b0002011880007003700dd
:1020cc001e007800e20f500004003a000e80e80079
:1020dc0010007800000cb000201188000080fa007d
:1020ec00000006000800fa008e81e80080097800e4
:1020fc006400470001087800660047000208780079
:10210c0064004700900078000e80e8001000780012
:10211c00daff070064004700100f78000800370052
:10212c000000000000118000620060000000e00070
:10213c00fcff3a0000022000201188001e0fe8006e
:10214c0066004700100078009e007800808f5000d9
:10215c00f3ff34000080fa00000006000400fa00cf
:10216c00881f78008e80e800800878000000eb0063
:10217c00000f78000d0037000000000000118000f7
:10218c00620060000000e000fcff3a009e00780056
:10219c000e80e8001000780001004000104078002c
:1021ac000000fb00201188001e0fe8001e047800c0
:1021bc000e80e80010007800e5fb0700800f54004b
:1021cc00edff39004f0478000080fa000000060093
:1021dc000600fa00000f78000e80e8000108780075
:1021ec0064004700024878000e80e80090007800f8
:1021fc001e007800a1ff0700000000000011800005
:10220c00620060000000e000fcff3a006400470040
:10221c00104078000080fb00c200de00b0472100b7
:10222c000008b8000100d100004078000080fb00dd
:10223c000003b00020118800000000000011800095
:10224c00620060000000e000fcff3a006400470000
:10225c00104078000081fb00c210de00b047210066
:10226c000008b8008100d100400620000088b900a9
:10227c000000780000005100004078008080fb00d6
:10228c00d0cc2c000008b8004308de0000407800d9
:10229c000080fb000003b00020118800000000004b
:1022ac0000118000620060000000e000fcff3a00ba
:1022bc0064004700104078000081fb00d0cc2c005b
:1022cc000010b8004308de006a00b9000000780076
:1022dc0000005100004078000080fb000003b000bb
:0c22ec00201188000080fa0000000600ad
:020000040000fa
:1022f800000800002a000000000000002a08000072
:102308000400000002000000de8801000000000058
:102318002e0800000200000000000000000000007d
:020000040000fa
:0200000401f009
:04000000f4bf000049
:020000040000fa
:0200000401f009
:04000400ff7f00007a
:020000040000fa
:0200000401f009
:04000800ffff0000f6
:020000040000fa
:0200000401f009
:04001400ffffff00eb
:020000040000fa
:0200000401f009
:04001800ffff0000e6
:00000001FF
